:100000000C9472000C9493000C94B9000C94DF00D3
:100010000C9491000C9491000C9491000C9491001C
:100020000C9491000C9491000C9491000C9491000C
:100030000C9491000C9491000C9491000C949100FC
:100040000C9491000C9491000C9491000C949100EC
:100050000C9491000C9491000C9491000C949100DC
:100060000C9491000C9405010C9491000C94910057
:100070000C9491000C9491000C9491000C949100BC
:100080000C9423030C940D040C9491000C94910097
:100090000C9491000C9491000C9491000C9491009C
:1000A0000C9491000C9491000C9491000C9491008C
:1000B0000C9491000C9491000C9491000C9491007C
:1000C0000C9491000C9491000C9491000C9491006C
:1000D0000C9491000C9491000C9491000C9491005C
:1000E0000C94910011241FBECFEFD1E2DEBFCDBF33
:1000F00012E0A0E0B2E0E8EBF4E100E00BBF02C0E8
:1001000007900D92AE31B107D9F712E0AEE1B2E03F
:1001100001C01D92A53AB107E1F70E94FD040C94BD
:100120005A0A0C9400001F920F920FB60F921124DE
:100130002F938F939F9320915202213089F4E89856
:1001400088B192E0892788B9209300021092520268
:100150001092350210923402109241021092400225
:10016000E09A9F918F912F910F900FBE0F901F904B
:1001700018951F920F920FB60F9211242F938F9301
:100180009F9320915302213089F4E99888B192E03D
:10019000892788B9209301021092530210923702E6
:1001A000109236021092430210924202E19A9F91FD
:1001B0008F912F910F900FBE0F901F9018951F9247
:1001C0000F920FB60F9211242F938F939F9320912C
:1001D0005402213089F4EA9888B192E0892788B9DD
:1001E00020930202109254021092390210923802A7
:1001F0001092450210924402E29A9F918F912F91A2
:100200000F900FBE0F901F9018951F920F920FB670
:100210000F920BB60F9211242F933F934F935F933E
:100220008F939F93AF93BF93EF93FF9385B18058C4
:1002300085B980912E0290912F02892B09F068C018
:1002400080916B0290916C0290936A028093690294
:1002500080916D0290916E0290936C0280936B027C
:1002600080916F029091700290936E0280936D0264
:1002700080917102909172029093700280936F024C
:100280008091C60090E090937202809371028091F9
:10029000690290916A028F3F910509F0C3C1809174
:1002A0006B0290916C02892B09F0BCC180916D02A8
:1002B00090916E028F3F910509F0B4C180916F0259
:1002C00090917002892B09F0ADC181E090E090938C
:1002D0002F0280932E0285E090E090932B02809372
:1002E0002A028091710290917202019719F485E1BE
:1002F00090E009C08091710290917202029709F01A
:1003000091C18BE090E090932D0280932C028AC1E2
:1003100080912E0290912F02019709F083C12091C4
:100320002A0230912B0280912C0290912D0282178B
:100330009307B0F0E0912A02F0912B028091C60061
:1003400090E0EE0FFF1FE759FD4F9183808380916E
:100350002A0290912B02019690932B0280932A02FD
:1003600020912A0230912B0280912C0290912D0233
:100370008217930708F056C110922F0210922E0296
:100380008091710290917202019709F097C080915B
:100390005202882331F58091730290917402809308
:1003A000300220917502309176028091770290910F
:1003B0007802982F8827822B932B90933502809375
:1003C00034022091790230917A0280917B029091DF
:1003D0007C02982F8827822B932B90933B0280934B
:1003E0003A0280915302882331F580917D029091E9
:1003F0007E028093310220917F02309180028091B1
:10040000810290918202982F8827822B932B9093C0
:1004100037028093360220918302309184028091CA
:10042000850290918602982F8827822B932B909398
:100430003D0280933C0280915402882331F58091E3
:100440008702909188028093320220918902309134
:100450008A0280918B0290918C02982F8827822BA0
:10046000932B909339028093380220918D02309122
:100470008E0280918F0290919002982F8827822B74
:10048000932B90933F0280933E0280919102909132
:1004900092022091930230919402322F2227282B2E
:1004A000392B30935C0220935B02809195029091EE
:1004B00096029093600280935F029BC080917102CC
:1004C00090917202029709F094C08091730290910A
:1004D000740280935202809175029091760280930B
:1004E0005302809177029091780280935402809118
:1004F000790290917A029093100280930F0280917A
:100500007B0290917C029093120280931102809161
:100510007D0290917E029093140280931302809149
:100520007F02909180029093600280935F0220E0AE
:1005300030E0F901EE5AFD4F8081813009F053C05F
:10054000D901AA0FBB1FFD01E05CFD4F1182108293
:10055000F901E050FE4F1082FD01EB5AFD4F808102
:100560009181F901E05DFD4F8083FD01E15FFD4F69
:1005700080819181FD01E65CFD4F91838083213074
:1005800041F0213018F0223051F406C048990BC0D8
:1005900010C0499908C00DC04A9905C00AC0413031
:1005A000510549F402C041E050E0FD01ED5FFD4F0F
:1005B00005C040E050E0FD01E75FFD4F8081918183
:1005C000AC5CBD4F11969C938E932115310519F4A7
:1005D000E89AE09A08C02130310519F4E99AE19AC5
:1005E00002C0EA9AE29A2F5F3F4F2330310509F0AB
:1005F000A0CF8091220290912302A0912402B09179
:10060000250280931E0290931F02A0932002B093B4
:10061000210280912802909129020196909329024B
:1006200080932802FF91EF91BF91AF919F918F919D
:100630005F914F913F912F910F900BBE0F900FBE86
:100640000F901F9018951F920F920FB60F920BB636
:100650000F9211240F931F932F933F934F935F9308
:100660006F937F938F939F93AF93BF93CF93DF93BA
:10067000EF93FF93609122027091230280912402F4
:100680009091250220911E0230911F02409120027C
:10069000509121020E94EF0720E030E040E05FE34C
:1006A0000E944D0888230CF0A1C0C0E0D0E001E01A
:1006B00010E0FE01EE0FFF1FE45BFD4F8081918192
:1006C0000196918380836C2FFE01E05DFD4FE081F8
:1006D000C13069F0C13018F0C230C1F410C0EE234F
:1006E00011F4129813C0E13089F4129A0FC0EE236E
:1006F00011F415980BC0E13049F4159A07C0EE23A8
:1007000011F4409803C0E13009F4409AAE01440F5F
:10071000551FDA01A45BBD4F8D919C911197FA0191
:10072000E65CFD4F208131818217930708F458C0A1
:1007300011961C921E92DA01A05CBD4F2D913C9146
:100740001197FA01EC5CFD4F80819181821793072C
:10075000BCF4613039F0613018F0623031F404C01B
:10076000109803C0139801C01698FE01EE0FFF1FEA
:10077000DF01A05CBD4F8D919C91119701971DC029
:100780002D913C9180819181281739074CF561307A
:1007900039F0613018F0623031F404C0109A03C0AF
:1007A000139A01C0169AFE01EE0FFF1FDF01A05C35
:1007B000BD4F8D919C911197019611969C938E93AC
:1007C000EA5BFD4F11830083613039F0613018F02E
:1007D000623031F404C0119A03C0149A01C0179A10
:1007E0002196C330D10509F064CFC19AFF91EF91F2
:1007F000DF91CF91BF91AF919F918F917F916F9139
:100800005F914F913F912F911F910F910F900BBED0
:100810000F900FBE0F901F9018951F920F920FB65A
:100820000F920BB60F9211242F933F934F935F9328
:100830006F937F938F939F93AF93BF93EF93FF93A8
:1008400060912202709123028091240290912502EE
:1008500020911E0230911F024091200250912102EE
:100860000E94EF0720E030E040E05FE30E944D0887
:10087000882344F5109295001092940020E030E017
:10088000F901EE0FFF1FEA5BFD4F80819181019717
:1008900099F4213039F0213018F0223031F404C0BD
:1008A000119803C0149801C01798F901EE0FFF1FAB
:1008B000EA5BFD4F118210822F5F3F4F23303105DD
:1008C000F9F6C29AFF91EF91BF91AF919F918F91ED
:1008D0007F916F915F914F913F912F910F900BBE40
:1008E0000F900FBE0F901F90189582E08093C0006C
:1008F00088E98093C10086E08093C2001092C50011
:1009000080E18093C400089582E080937C00EAE750
:10091000F0E080818061808380818064808308959D
:10092000EAE7F0E08081876080838081806880834F
:1009300082E080937C0080818061808380818064FC
:10094000808380B3847080BB0895E0E8F0E080810C
:100950008260808380818E7F8083808180688083B5
:1009600080818F7B8083E1E8F0E0808188618083F3
:1009700080818160808380818D7F808380818B7F77
:10098000808388EB92E09093870080938600259A7D
:100990000895E0EBF0E0808182608083E1EBF0E09D
:1009A0008081816080838081826080838081846097
:1009B000808380E18093B3000895E1E9F0E08081D5
:1009C0008160808380818260808380818B7F80834F
:1009D000E1E7F0E0808182608083808184608083B1
:1009E00081E490E0909399008093980082E890E0F1
:1009F00090939B0080939A0008958F929F92AF925C
:100A0000BF92CF92DF92EF92FF920F931F93CF93FB
:100A1000DF938FEF81B912B887B1817087B988B140
:100A200018B888B118B888B118B8279A80B310BA26
:100A300082E08093C00088E98093C10086E08093C3
:100A4000C2001092C50080E18093C4000E9490040F
:100A50000E94A5040E94C9040E94DD0480916900DF
:100A60008561809369008AB1887F8AB97894C0E0F3
:100A7000D0E0BB24BA94882483940DE4A02E12E025
:100A8000912EBCE5CB2EB1E0DB2EA8EBEA2EA2E046
:100A9000FA2EB99BFECF60912202709123028091C1
:100AA0002402909125022FE632E143E85AE30E94A6
:100AB0002008609322027093230280932402909373
:100AC000250280917A0084FF62C080917800209195
:100AD0007900122F00E090E0802B912B9093270259
:100AE0008093260290927C0080917A0080618093AE
:100AF0007A0080917A00806480937A0080915B0212
:100B000090915C022091260230912702821B930B68
:100B10009093680280936702D0925E02C0925D0259
:100B2000609122027091230280912402909125020B
:100B300020911E0230911F0240912002509121020B
:100B40000E94EF0720E030E040E05FE30E944D08A4
:100B50008823ACF4809167029091680218161906F8
:100B600034F4429AF0925E02E0925D0208C08091F5
:100B7000670290916802865F9F4F0CF442988091C3
:100B80005D0290915E029093890080938800219687
:100B9000CA30D10509F0CCC08091C00085FFFCCFE0
:100BA000B092C6008091C00085FFFCCF1092C600B5
:100BB0008091C00085FFFCCFB092C6008091C0003C
:100BC00085FFFCCF1092C6008091C00085FFFCCF4E
:100BD0008092C600909100028091C00085FFFCCFFA
:100BE0009093C60020914002309141028091C00054
:100BF00085FFFCCF2093C6008091C00085FFFCCF0D
:100C0000832F992787FD9A958093C60090910102C2
:100C10008091C00085FFFCCF9093C60020914202D6
:100C2000309143028091C00085FFFCCF2093C60025
:100C30008091C00085FFFCCF832F992787FD9A956F
:100C40008093C600909102028091C00085FFFCCF86
:100C50009093C60020914402309145028091C000DB
:100C600085FFFCCF2093C6008091C00085FFFCCF9C
:100C7000832F992787FD9A958093C600209126029D
:100C8000309127028091C00085FFFCCF2093C600E1
:100C90008091C00085FFFCCF832F992787FD9A950F
:100CA0008093C600609122027091230280912402F9
:100CB0009091250220911E0230911F024091200246
:100CC000509121020E94EF076093610270936202CB
:100CD000809363029093640280916102909162021A
:100CE000A0916302B0916402292F3A2F4B2F982FC5
:100CF0008091C00085FFFCCF9093C6008091C0001A
:100D000085FFFCCF2093C6008091C00085FFFCCFFB
:100D10003093C6008091C00085FFFCCF4093C60091
:100D20008091C00085FFFCCFA092C600C0E0D0E05B
:100D3000B99AAFCEE9E6F0E08081856180838AB11F
:100D4000887F8AB90895A0E0B0E0E9EAF6E00C9463
:100D5000230ADC012B01FA019C91923008F439C17D
:100D6000EB018881823008F433C1943069F4843017
:100D700009F02FC111969C9111978981981709F458
:100D800028C1A5E1B2E025C1843009F421C1823037
:100D9000A9F4923009F01DC19A01AD0188E0EA0181
:100DA0000990AE01E90109929E018150C1F7E2016B
:100DB000898111969C918923818308C1923009F41D
:100DC00007C112962D903C901397EB018A819B816D
:100DD0001496AD90BD90CD90DC901797EC80FD807F
:100DE0000E811F819101281B390BB90137FF04C007
:100DF00066277727621B730B603271050CF061C0A8
:100E0000121613066CF537014801062E04C096949D
:100E10008794779467940A94D2F721E030E040E019
:100E200050E004C0220F331F441F551F6A95D2F7AC
:100E300021503040404050402E213F21402351233B
:100E4000211531054105510521F021E030E040E058
:100E500050E079018A01E628F728082919293CC0C1
:100E6000232BD1F1260E371E35014601062E04C074
:100E700096948794779467940A94D2F721E030E0AF
:100E800040E050E004C0220F331F441F551F6A95F5
:100E9000D2F721503040404050402A213B214C2184
:100EA0005D21211531054105510521F021E030E09A
:100EB00040E050E059016A01A628B728C828D9287F
:100EC0000BC0821593052CF01C01AA24BB246501DC
:100ED00003C0EE24FF24870111969C91D201119644
:100EE0008C91981709F445C0992339F0A80197010E
:100EF0002A193B094C095D0906C0A60195012E1966
:100F00003F09400B510B57FD08C0118233822282EA
:100F100024833583468357831DC081E081833382D8
:100F2000228288279927DC01821B930BA40BB50B27
:100F300084839583A683B7830DC0220F331F441F7C
:100F4000551F24833583468357838281938101977C
:100F5000938382832481358146815781DA01C901D7
:100F60000197A109B1098F5F9F4FAF4FBF4328F38E
:100F70000BC0918333822282EA0CFB1C0C1D1D1DC9
:100F8000E482F5820683178383E0808324813581A0
:100F90004681578157FF1AC0C901AA2797FDA0951E
:100FA000BA2F81709070A070B070569547953795A4
:100FB0002795822B932BA42BB52B84839583A68313
:100FC000B78382819381019693838283DF0101C07D
:100FD000D201CD01CDB7DEB7E2E10C943F0AA0E229
:100FE000B0E0E5EFF7E00C942F0A69837A838B83F6
:100FF0009C832D833E834F835887E9E0EE2EF12CAE
:10100000EC0EFD1ECE010196B7010E9452098E0121
:101010000F5E1F4FCE010596B8010E9452098A89C2
:1010200091E089278A8BC701B801AE01475E5F4F07
:101030000E94A3060E947D08A096E6E00C944B0A4D
:10104000A0E2B0E0E6E2F8E00C942F0A69837A832C
:101050008B839C832D833E834F835887F9E0EF2E4B
:10106000F12CEC0EFD1ECE010196B7010E94520933
:101070008E010F5E1F4FCE010596B8010E945209E6
:10108000C701B801AE01475E5F4F0E94A3060E94F0
:101090007D08A096E6E00C944B0AA8E1B0E0E3E5F9
:1010A000F8E00C942F0A69837A838B839C832D83C9
:1010B0003E834F83588789E0E82EF12CEC0EFD1E0D
:1010C000CE010196B7010E9452098E010F5E1F4F9B
:1010D000CE010596B8010E9452098985823040F000
:1010E0008989823028F0C701B8010E94CA0901C06D
:1010F00081E06896E6E00C944B0ADF92EF92FF9253
:101100000F931F93FC01E480F58006811781D18045
:101110008081823048F480E090E0A0E1B0E0E82AED
:10112000F92A0A2B1B2BA5C0843009F49FC08230FA
:1011300021F4EE24FF24870105C0E114F104010528
:10114000110519F4E0E0F0E096C0628173819FEF31
:10115000623879070CF05BC022E83FEF261B370BA3
:101160002A3131052CF020E030E040E050E02AC088
:10117000B801A701022E04C076956795579547954B
:101180000A94D2F781E090E0A0E0B0E004C0880FBC
:10119000991FAA1FBB1F2A95D2F70197A109B10970
:1011A0008E219F21A023B1230097A105B10521F035
:1011B00081E090E0A0E0B0E09A01AB01282B392B50
:1011C0004A2B5B2BDA01C9018F779070A070B07049
:1011D00080349105A105B10539F427FF09C0205CD1
:1011E0003F4F4F4F5F4F04C0215C3F4F4F4F5F4F0A
:1011F000E0E0F0E02030A0E03A07A0E04A07A0E4F9
:101200005A0710F0E1E0F0E079018A0127C0603868
:10121000710564F5FB01E158FF4FD801C7018F77D5
:101220009070A070B07080349105A105B10539F4BB
:10123000E7FE0DC080E490E0A0E0B0E004C08FE3E2
:1012400090E0A0E0B0E0E80EF91E0A1F1B1F17FF98
:1012500005C016950795F794E794319687E01695A3
:101260000795F794E7948A95D1F705C0EE24FF24FB
:101270008701EFEFF0E06E2F679566276795902F57
:101280009F77D794DD24D7948E2F8695492F462BB0
:10129000582F5D29B701CA011F910F91FF90EF9060
:1012A000DF900895FC01DB01408151812281622F92
:1012B0006F7770E0221F2227221F9381892F880FCA
:1012C000822B282F30E0991F9927991F11969C9304
:1012D000119721153105A9F54115510561057105D4
:1012E00011F482E037C082E89FEF13969C938E93AF
:1012F00012979A01AB0167E0220F331F441F551F5D
:101300006A95D1F783E08C930DC0220F331F441FE1
:10131000551F12968D919C911397019713969C934C
:101320008E931297203080E0380780E0480780E4F1
:10133000580758F314962D933D934D935C9317974C
:1013400008952F3F310579F4411551056105710567
:1013500019F484E08C93089564FF03C081E08C93BA
:1013600012C01C9210C02F57304013963C932E93FE
:10137000129783E08C9387E0440F551F661F771FF9
:101380008A95D1F7706414964D935D936D937C9319
:10139000179708951F93DC01FB019C91923008F48C
:1013A00047C08081823008F443C0943051F41196D4
:1013B0001C91843099F58181682F70E0611B71095F
:1013C0003FC0843021F0923031F48230B9F1818114
:1013D000882389F12DC011961C9111978230F1F06C
:1013E00081811817D9F412962D913C91139782811F
:1013F00093818217930794F028173907BCF014964D
:101400008D919D910D90BC91A02D248135814681B7
:101410005781281739074A075B0718F4112341F051
:101420000AC082179307A407B50740F4112319F0E7
:1014300061E070E005C06FEF7FEF02C060E070E038
:10144000CB011F9108952F923F924F925F926F921E
:101450007F928F929F92AF92BF92CF92DF92EF9244
:10146000FF920F931F93CF93DF93CDB7DEB7CA1BC5
:10147000DB0B0FB6F894DEBF0FBECDBF09942A88F0
:10148000398848885F846E847D848C849B84AA8498
:10149000B984C884DF80EE80FD800C811B81AA8125
:1014A000B981CE0FD11D0FB6F894DEBF0FBECDBFF0
:0814B000ED010895F894FFCF4F
:1014B800FFFFFFFF7F5CF95CF90180A406A4061E0C
:0E14C800001E001E00000000000000000000DA
:00000001FF
