:100000000C9434000C9451000C9451000C94510049
:100010000C9451000C9451000C9451000C9451001C
:100020000C9451000C9451000C9451000C9451000C
:100030000C9451000C9451000C9451000C945100FC
:100040000C9451000C9451000C94A3020C94510098
:100050000C9451000C94E9040C9451000C94510040
:100060000C9451000C94510011241FBECFEFD8E026
:10007000DEBFCDBF12E0A0E0B1E0E4E4FCE102C0ED
:1000800005900D92A231B107D9F712E0A2E1B2E0DA
:1000900001C01D92A93AB107E1F70E94A1070C9493
:1000A000200E0C9400006091240270912502809132
:1000B0002602909127022091390230913A02409114
:1000C0003B0250913C020E94BD0A60933D02709336
:1000D0003E0280933F029093400260913D027091F6
:1000E0003E0280913F029091400220E030E040E0EB
:1000F0005EE30E944B0B88232CF410923302109283
:10010000320206C081E090E0909333028093320285
:100110002091320230913302809134029091350265
:100120002817390731F081E090E0909337028093EF
:10013000360280913202909133029093350280937F
:1001400034022091320230913302C901089581E0D6
:1001500090E008958130910511F4289A0895892B33
:1001600009F4289808958091300290913102892BEA
:1001700049F481E090E090933102809330020E9434
:10018000AA0008958091300290913102019741F4C4
:10019000109231021092300280E090E00E94AA009A
:1001A00008958FEF87BD18BC08958FEF8093B3003B
:1001B0001092B400089517BC18BC08951092B300B3
:1001C0001092B4000895009741F580915A029091E1
:1001D0005B02892B69F480916E0290916F02892BEA
:1001E00039F417BC809166029091670288BD08952A
:1001F00080915A0290915B02019761F480917002A4
:1002000090917102892B31F480916602909167027E
:1002100087BD01C017BC18BC0895019771F5809186
:100220005C0290915D02892B79F480915E0290913D
:100230005F02892B49F48091680290916902809352
:10024000B3001092B400089580915C0290915D0219
:10025000019779F48091600290916102892B49F4B1
:100260001092B30080916802909169028093B4006B
:1002700008951092B3001092B4000895582F809101
:1002800078008093550280917900809372022091CA
:10029000550240917202942F80E030E0822B932B24
:1002A00090931302809312025523D1F5809112028C
:1002B00090911302909315028093140220911402DE
:1002C00030911502809100019091010128173907A2
:1002D00040F081E090E090936F0280936E022A9A42
:1002E00005C010926F0210926E022A9820916E0241
:1002F00030916F0280917302909174022817390730
:1003000031F081E090E090934A028093490280911D
:100310006E0290916F02909374028093730208951D
:100320005130D1F5809112029091130290931702EF
:1003300080931602209116023091170280910201DB
:10034000909103012817390740F081E090E09093E5
:10035000710280937002299A05C010927102109266
:10036000700229982091700230917102809175027B
:10037000909176022817390731F081E090E0909350
:100380004A02809349028091700290917102909389
:1003900076028093750208955230D1F58091120251
:1003A00090911302909319028093180220911802E1
:1003B00030911902809104019091050128173907A5
:1003C00040F081E090E090935F0280935E022C9A6F
:1003D00005C010925F0210925E022C9820915E027E
:1003E00030915F0280918B0290918C02281739071F
:1003F00031F081E090E090934C0280934B02809129
:100400005E0290915F0290938C0280938B0208951C
:100410005330D1F5809112029091130290931B02F8
:1004200080931A0220911A0230911B0280910601DA
:10043000909107012817390740F081E090E09093F0
:100440006102809360022D9A05C0109261021092A1
:1004500060022D98209160023091610280918D029E
:1004600090918E022817390731F081E090E0909347
:100470004C0280934B0280916002909161029093B4
:100480008E0280938D0208955430F1F4809112020F
:100490009091130290931D0280931C0220911C02E4
:1004A00030911D02809108019091090128173907A8
:1004B00038F081E090E090935202809351020895C9
:1004C00010925202109251020895982F8091C0000C
:1004D00085FFFCCF9093C60008959C018091C000D9
:1004E00085FFFCCF2093C6008091C00085FFFCCF24
:1004F000832F992787FD9A958093C6000895282F0A
:100500008091C00085FFFCCF6093C6008091C00041
:1005100085FFFCCF7093C6008091C00085FFFCCFA3
:100520002093C6008091C00085FFFCCF9093C60049
:10053000089528E833E104C0F9013197F1F70197F4
:100540000097D1F708951F920F920FB60F921124C2
:100550002F933F938F939F93AF93BF93EF93FF930B
:100560008091470290914802892B09F065C08091E3
:1005700095029091960290939402809393028091B9
:1005800097029091980290939602809395028091A1
:10059000990290919A029093980280939702809189
:1005A0009B0290919C0290939A0280939902809171
:1005B000C60090E090939C0280939B0280919302EE
:1005C000909194028F3F910509F048C18091950266
:1005D00090919602892B09F041C1809197029091E8
:1005E00098028F3F910509F039C18091990290914D
:1005F0009A02892B09F032C181E090E09093480281
:100600008093470285E090E09093440280934302F8
:1006100080919B0290919C02019739F080919B02FE
:1006200090919C02029709F019C18AE090E09093A2
:1006300046028093450212C1809147029091480280
:10064000019709F00BC1209143023091440280913F
:1006500045029091460282179307B0F0E091430261
:10066000F09144028091C60090E0EE0FFF1FED561E
:10067000FD4F9183808380914302909144020196C3
:1006800090934402809343022091430230914402AC
:1006900080914502909146028217930708F0DEC0D0
:1006A000109248021092470280919B0290919C0206
:1006B0008130910509F0B5C09093900280938F022C
:1006C00020915A0230915B0280919D0290919E028E
:1006D0008230910508F0C90190935B0280935A0221
:1006E00080919F029091A00290936702809366028E
:1006F00020915C0230915D028091A1029091A20252
:100700008230910508F0C90190935D0280935C02EC
:100710008091A3029091A402909369028093680251
:1007200020912002309121028091A5029091A60291
:100730008230910508F0C901909321028093200234
:100740008091A7029091A80290937C0280937B02F3
:1007500020915A0230915B02809177029091780249
:100760002817390731F081E090E090934E02809392
:100770004D0220915C0230915D028091790290914E
:100780007A022817390731F081E090E09093500207
:1007900080934F02209166023091670280917D0222
:1007A00090917E022817390731F081E090E0909314
:1007B0004E0280934D02209168023091690280912F
:1007C0007F02909180022817390731F081E090E094
:1007D0009093500280934F0280915A0290915B0255
:1007E000909378028093770280915C0290915D02F1
:1007F00090937A02809379028091660290916702C9
:1008000090937E0280937D028091680290916902AC
:100810009093800280937F021092900210928F0238
:1008200004C080919B0290919C028091240290913F
:100830002502A0912602B09127028093390290935D
:100840003A02A0933B02B0933C0280914102909106
:10085000420201969093420280934102FF91EF91F0
:10086000BF91AF919F918F913F912F910F900FBEAC
:100870000F901F90189584B5826084BD84B5816007
:1008800084BD84B5806884BD84B5806484BD84B52E
:10089000806284BD84B5806184BD85B5887085BD66
:1008A00085B58E7F85BD85B5826085BD85B58B7F1D
:1008B00085BD17BC18BC559A569A0895E0EBF0E038
:1008C0008081826080838081816080838081806874
:1008D0008083808180648083808180628083808146
:1008E00080618083E1EBF0E080818870808380818B
:1008F0008E7F808380818260808380818B7F8083F4
:100900001092B3001092B400539A239A089588234A
:1009100021F480917C00807F20C0813049F4809157
:100920007C00807F80937C0080917C00816015C07A
:10093000823049F480917C00807F80937C0080919C
:100940007C0082600AC0833059F480917C00807FF3
:1009500080937C0080917C00836080937C0008956C
:10096000843051F480917C00807F80937C00809162
:100970007C00866080937C0008950F931F930AE7A4
:1009800010E0F801808187608083808180688083A7
:1009900010926D0210926C0280916C0290916D0227
:1009A0000E948704219A229A249A259A209A38989C
:1009B00039983A983B983E98F8018081806180830D
:1009C0008081886080838081806480831F910F9103
:1009D00008951F920F920FB60F9211242F933F93F9
:1009E0004F935F936F937F938F939F93AF93BF9337
:1009F000EF93FF9380917A00877F80937A008091B4
:100A00006C0290916D020E943E0180916C02909167
:100A10006D02049750F480916C0290916D020196E2
:100A200090936D0280936C0204C010926D0210923C
:100A30006C0280916C0290916D020E9487048091FB
:100A40007A00806180937A0080917A008860809338
:100A50007A0080917A00806480937A00FF91EF9110
:100A6000BF91AF919F918F917F916F915F914F91C6
:100A70003F912F910F900FBE0F901F901895529895
:100A80005A9A579A08954A9B06C010921F021092D4
:100A90001E025F98089581E090E090931F0280937A
:100AA0001E025F9A0895E0E8F0E080818E7F8083E7
:100AB00080818D7F8083E1E8F0E0808188608083A1
:100AC00080818160808380818D7F8083808184604C
:100AD000808380E190E0909389008093880008955E
:100AE00082E08093C00088E98093C10086E0809313
:100AF000C2001092C50085E18093C4005098589AB6
:100B0000519A08958091200290912102892B11F42D
:100B10005C9A08958091200290912102019709F436
:100B20005C9808951092210210922002549A0E941B
:100B3000820508956230710508F4CB010895E9EB50
:100B4000F0E080818E7F808380818D7F80838CE543
:100B50008093B800ECEBF0E080818460808308959E
:100B60008091BC0080628093BC008091BC0087FFB4
:100B7000FCCF08958091BC008F7D8093BC00809154
:100B8000BC0080688093BC008091BC0087FFFCCFD4
:100B900008950F931F93182F062F8091BC00806437
:100BA0008093BC008091BC0080628093BC008091E7
:100BB000BC0087FFFCCF86EA8093BB000E94BA0589
:100BC0001093BB008091BC0080688093BC00809132
:100BD000BC0087FFFCCF0093BB008091BC00806805
:100BE0008093BC008091BC0087FFFCCF8091BC004B
:100BF00080698093BC008091BC0084FDFCCF1F9174
:100C00000F9108958091BC0080648093BC00809116
:100C1000BC0080628093BC008091BC0087FFFCCF49
:100C200086EA8093BB000E94BA0582E38093BB00F2
:100C30008091BC0080688093BC008091BC0087FFDD
:100C4000FCCF8091BC0080628093BC008091BC008E
:100C500087FFFCCF87EA8093BB000E94BA05809192
:100C6000BC0080688093BC008091BC0087FFFCCFF3
:100C70008091BB0090E0909359028093580280913C
:100C8000BC0080688093BC008091BC0087FFFCCFD3
:100C90008091BB0090E09093650280936402809104
:100CA000BC0080688093BC008091BC0087FFFCCFB3
:100CB0008091BB0090E090938402809383028091A6
:100CC000BC0080688093BC008091BC0087FFFCCF93
:100CD0008091BB0090E090935402809353028091E6
:100CE000BC0080688093BC008091BC0087FFFCCF73
:100CF0008091BB0090E0909392028093910280914A
:100D0000BC008F7B8093BC008091BC008068809386
:100D1000BC008091BC0080688093BC008091BC00C6
:100D200087FFFCCF8091BB0090E090936B02809393
:100D30006A028091BC0080698093BC008091BC00F5
:100D400084FDFCCF209158023091590280916402B9
:100D500090916502982F8827822B932B90935702AE
:100D60008093560220918302309184028091530235
:100D700090915402982F8827822B932B9093820274
:100D800080938102209191023091920280916A02B7
:100D900090916B02982F8827822B932B909363025C
:100DA0008093620208951F93182F8091BC00806485
:100DB0008093BC008091BC0080628093BC008091D5
:100DC000BC0087FFFCCF86EA8093BB000E94BA0577
:100DD0001093BB008091BC0080688093BC00809120
:100DE000BC0087FFFCCF8091BC0080628093BC0078
:100DF0008091BC0087FFFCCF87EA8093BB000E94F4
:100E0000BA058091BC008F7B8093BC008091BC00B0
:100E100080688093BC008091BC0087FFFCCF9091DC
:100E2000BB008091BC0080698093BC008091BC00B5
:100E300084FDFCCF892F1F9108958091BC008069AB
:100E40008093BC008091BC0084FDFCCF0895ECEB46
:100E5000F0E08081806480830895ECEBF0E0808195
:100E60008F7B8083089582E30E94D30690E0909365
:100E700059028093580283E30E94D30690E0909336
:100E8000650280936402209158023091590280914A
:100E9000640290916502982F8827822B932B909360
:100EA00057028093560284E30E94D30690E0909309
:100EB00084028093830285E30E94D30690E090939E
:100EC00054028093530220918302309184028091D6
:100ED000530290915402982F8827822B932B909342
:100EE00082028093810286E30E94D30690E0909371
:100EF00092028093910287E30E94D30690E0909340
:100F00006B0280936A02209191023091920280914B
:100F10006A0290916B02982F8827822B932B9093D3
:100F200063028093620208958DE268E00E94C90521
:100F300081E360E00E94C9058CE26DE00E94C90572
:100F40000895BF92CF92DF92EF92FF920F931F937B
:100F500010925B0210925A0210925D0210925C0293
:100F6000109278021092770210927A02109279020F
:100F70001092670210926602109269021092680243
:100F800010927E0210927D021092800210927F02D7
:100F900010926F0210926E02109271021092700203
:100FA00010925F0210925E02109261021092600233
:100FB00010927402109273021092760210927502CF
:100FC00010928C0210928B0210928E0210928D025F
:100FD0000E943B040E945E040E94BD040E945305CF
:100FE0000E9470050E949F050E9494077894DD245A
:100FF000DA94CC24C394ADE4BA2E0F2EF0E0EF2E99
:10100000F0E0FF2EF0E00F2FF0E01F2FF02DB19B4E
:1010100066C1609124027091250280912602909110
:1010200027022FE632E143E85AE30E94EE0A60937A
:1010300024027093250280932602909327026091E8
:1010400028027091290280912A0290912B022FE6AA
:1010500032E143E85AE30E94EE0A6093280270935B
:10106000290280932A0290932B02609128027091AA
:10107000290280912A0290912B022FE632E143E06F
:101080005BE30E941B0B88230CF46DC080918F02E0
:1010900090919002892B09F05CC00E9443050E9448
:1010A00082050E945300019789F410922102109248
:1010B00020020E94820581E090E00E94AA0017BCF5
:1010C00018BC1092B3001092B40043C08091360255
:1010D000909137028130910541F490934E028093B4
:1010E0004D029093500280934F028091490290915B
:1010F0004A02019731F080914D0290914E02019782
:1011000061F480E090E00E94E30010924A021092A5
:10111000490210924E0210924D0280914B02909122
:101120004C02019731F080914F029091500201974B
:1011300061F481E090E00E94E30010924C02109272
:101140004B021092500210924F02109237021092EE
:101150003602E0922802F092290200932A021093AC
:101160002B020E94B30080912202909123020196EB
:101170009093230280932202809122029091230275
:10118000449709F0ACC00E9402068091C00085FF20
:10119000FCCFD092C6008091C00085FFFCCF10929A
:1011A000C6008091C00085FFFCCFD092C600809120
:1011B000C00085FFFCCF1092C6008091C00085FF63
:1011C000FCCFC092C60060912402709125028091EC
:1011D0002602909127020E947F0220911E023091E8
:1011E0001F028091C00085FFFCCF2093C600209194
:1011F0006E0230916F028091C00085FFFCCF20937A
:10120000C60020917002309171028091C00085FF6C
:10121000FCCF2093C60020915E0230915F02809146
:10122000C00085FFFCCF2093C60020916002309162
:1012300061028091C00085FFFCCF2093C600209101
:101240005102309152028091C00085FFFCCF209363
:10125000C60080915602909157020E946D028091C3
:101260008102909182020E946D02809162029091AF
:1012700063020E946D028091240290912502A09148
:101280002602B09127028091390290913A02A091F2
:101290003B02B0913C02609114027091150280E013
:1012A00090E00E947B0B609385027093860280938E
:1012B00087029093880260918502709186028091E6
:1012C0008702909188020E947F028091C00085FF72
:1012D000FCCFB092C6001092230210922202B19A63
:1012E00096CEA0E0B0E0E7E7F9E00C94E90DDC0170
:1012F0002B01FA019C91923008F439C1EB018881ED
:10130000823008F433C1943069F4843009F02FC17D
:1013100011969C9111978981981709F428C1AAE028
:10132000B1E025C1843009F421C18230A9F49230A2
:1013300009F01DC19A01AD0188E0EA010990AE01F2
:10134000E90109929E018150C1F7E201898111965C
:101350009C918923818308C1923009F407C11296B8
:101360002D903C901397EB018A819B811496AD9050
:10137000BD90CD90DC901797EC80FD800E811F8191
:101380009101281B390BB90137FF04C06627772765
:10139000621B730B603271050CF061C012161306EC
:1013A0006CF537014801062E04C096948794779413
:1013B00067940A94D2F721E030E040E050E004C0A6
:1013C000220F331F441F551F6A95D2F7215030401A
:1013D000404050402E213F2140235123211531050B
:1013E0004105510521F021E030E040E050E0790175
:1013F0008A01E628F728082919293CC0232BD1F1B6
:10140000260E371E35014601062E04C09694879499
:10141000779467940A94D2F721E030E040E050E0FE
:1014200004C0220F331F441F551F6A95D2F7215065
:101430003040404050402A213B214C215D21211564
:1014400031054105510521F021E030E040E050E058
:1014500059016A01A628B728C828D9280BC08215C7
:1014600093052CF01C01AA24BB24650103C0EE24C3
:10147000FF24870111969C91D20111968C919817A7
:1014800009F445C0992339F0A80197012A193B09AD
:101490004C095D0906C0A60195012E193F09400BB4
:1014A000510B57FD08C01182338222822483358379
:1014B000468357831DC081E081833382228288273F
:1014C0009927DC01821B930BA40BB50B84839583B6
:1014D000A683B7830DC0220F331F441F551F2483DB
:1014E00035834683578382819381019793838283D7
:1014F0002481358146815781DA01C9010197A1090B
:10150000B1098F5F9F4FAF4FBF4328F30BC091834B
:1015100033822282EA0CFB1C0C1D1D1DE482F58225
:101520000683178383E08083248135814681578138
:1015300057FF1AC0C901AA2797FDA095BA2F81703D
:101540009070A070B0705695479537952795822B6F
:10155000932BA42BB52B84839583A683B783828199
:101560009381019693838283DF0101C0D201CD0173
:10157000CDB7DEB7E2E10C94050EA0E2B0E0E3ECFB
:10158000FAE00C94F50D69837A838B839C832D8319
:101590003E834F835887E9E0EE2EF12CEC0EFD1EC2
:1015A000CE010196B7010E94180D8E010F5E1F4FEC
:1015B000CE010596B8010E94180D8A8991E089270D
:1015C0008A8BC701B801AE01475E5F4F0E94710967
:1015D0000E94430CA096E6E00C94110EA0E2B0E04D
:1015E000E4EFFAE00C94F50D69837A838B839C8396
:1015F0002D833E834F835887F9E0EF2EF12CEC0EBC
:10160000FD1ECE010196B7010E94180D8E010F5EDE
:101610001F4FCE010596B8010E94180DC701B801F1
:10162000AE01475E5F4F0E9471090E94430CA09675
:10163000E6E00C94110EA8E1B0E0E1E2FBE00C94CE
:10164000F50D69837A838B839C832D833E834F833F
:10165000588789E0E82EF12CEC0EFD1ECE01019694
:10166000B7010E94180D8E010F5E1F4FCE01059627
:10167000B8010E94180D8985823040F08989823036
:1016800028F0C701B8010E94900D01C08FEF689645
:10169000E6E00C94110EA8E1B0E0E1E5FBE00C946B
:1016A000F50D69837A838B839C832D833E834F83DF
:1016B000588789E0E82EF12CEC0EFD1ECE01019634
:1016C000B7010E94180D8E010F5E1F4FCE010596C7
:1016D000B8010E94180D8985823040F089898230D6
:1016E00028F0C701B8010E94900D01C081E0689602
:1016F000E6E00C94110EA8E0B0E0E1E8FBE00C9409
:10170000F10D7B018C01611571058105910519F4BD
:1017100082E0898360C083E089838EE1C82ED12C6A
:10172000DC82CB82ED82FE820F831887C801B7016D
:101730000E94F40BFC013197F7FF3BC022273327AF
:101740002E1B3F0B57016801022E04C0D694C7948C
:10175000B794A7940A94D2F740E050E060E070E0BC
:1017600081E090E0A0E0B0E004C0880F991FAA1FBC
:10177000BB1F2A95D2F70197A109B1098E219F219C
:10178000A023B1230097A105B10521F041E050E06D
:1017900060E070E04A295B296C297D294D835E83D6
:1017A0006F8378878EE190E08E1B9F0B9C838B83E9
:1017B00012C0309781F00E2E04C0EE0CFF1C001FEB
:1017C000111F0A94D2F7ED82FE820F831887CE1A7A
:1017D000DF0ADC82CB821A82CE0101960E94430C82
:1017E0002896EAE00C940D0EEF92FF920F931F9350
:1017F0007B018C0180E0E81680E0F80681E00807B4
:1018000080E0180788F48FEFE816F1040105110550
:1018100031F028F088E090E0A0E0B0E017C080E070
:1018200090E0A0E0B0E012C080E0E81680E0F806AA
:1018300080E0080781E0180728F088E190E0A0E048
:10184000B0E004C080E190E0A0E0B0E020E230E051
:1018500040E050E0281B390B4A0B5B0B04C0169587
:101860000795F794E7948A95D2F7F701EE5EFE4F5D
:101870008081281B310941095109C9011F910F912C
:10188000FF90EF900895DF92EF92FF920F931F93D6
:10189000FC01E480F58006811781D180808182304F
:1018A00048F480E090E0A0E1B0E0E82AF92A0A2BB1
:1018B0001B2BA5C0843009F49FC0823021F4EE2494
:1018C000FF24870105C0E114F1040105110519F495
:1018D000E0E0F0E096C0628173819FEF62387907A3
:1018E0000CF05BC022E83FEF261B370B2A31310595
:1018F0002CF020E030E040E050E02AC0B801A70121
:10190000022E04C076956795579547950A94D2F7AD
:1019100081E090E0A0E0B0E004C0880F991FAA1F0A
:10192000BB1F2A95D2F70197A109B1098E219F21EA
:10193000A023B1230097A105B10521F081E090E03B
:10194000A0E0B0E09A01AB01282B392B4A2B5B2B8E
:10195000DA01C9018F779070A070B0708034910562
:10196000A105B10539F427FF09C0205C3F4F4F4F57
:101970005F4F04C0215C3F4F4F4F5F4FE0E0F0E00E
:101980002030A0E03A07A0E04A07A0E45A0710F090
:10199000E1E0F0E079018A0127C06038710564F563
:1019A000FB01E158FF4FD801C7018F779070A070FD
:1019B000B07080349105A105B10539F4E7FE0DC082
:1019C00080E490E0A0E0B0E004C08FE390E0A0E00D
:1019D000B0E0E80EF91E0A1F1B1F17FF05C0169581
:1019E0000795F794E794319687E016950795F79455
:1019F000E7948A95D1F705C0EE24FF248701EFEF25
:101A0000F0E06E2F679566276795902F9F77D794A4
:101A1000DD24D7948E2F8695492F462B582F5D298C
:101A2000B701CA011F910F91FF90EF90DF900895C9
:101A3000FC01DB01408151812281622F6F7770E0D0
:101A4000221F2227221F9381892F880F822B282F64
:101A500030E0991F9927991F11969C931197211592
:101A60003105A9F5411551056105710511F482E0B3
:101A700037C082E89FEF13969C938E9312979A013A
:101A8000AB0167E0220F331F441F551F6A95D1F742
:101A900083E08C930DC0220F331F441F551F1296F5
:101AA0008D919C911397019713969C938E93129707
:101AB000203080E0380780E0480780E4580758F37A
:101AC00014962D933D934D935C93179708952F3F54
:101AD000310579F4411551056105710519F484E06A
:101AE0008C93089564FF03C081E08C9312C01C9214
:101AF00010C02F57304013963C932E93129783E0DB
:101B00008C9387E0440F551F661F771F8A95D1F786
:101B1000706414964D935D936D937C93179708951D
:101B20001F93DC01FB019C91923008F447C0808137
:101B3000823008F443C0943051F411961C918430E3
:101B400099F58181682F70E0611B71093FC0843075
:101B500021F0923031F48230B9F18181882389F10A
:101B60002DC011961C9111978230F1F081811817C8
:101B7000D9F412962D913C9113978281938182170B
:101B8000930794F028173907BCF014968D919D9116
:101B90000D90BC91A02D2481358146815781281755
:101BA00039074A075B0718F4112341F00AC082176E
:101BB0009307A407B50740F4112319F061E070E022
:101BC00005C06FEF7FEF02C060E070E0CB011F91B6
:101BD00008952F923F924F925F926F927F928F92D1
:101BE0009F92AF92BF92CF92DF92EF92FF920F93AC
:101BF0001F93CF93DF93CDB7DEB7CA1BDB0B0FB6B6
:101C0000F894DEBF0FBECDBF09942A883988488872
:101C10005F846E847D848C849B84AA84B984C88408
:101C2000DF80EE80FD800C811B81AA81B981CE0FFF
:101C3000D11D0FB6F894DEBF0FBECDBFED010895E4
:041C4000F894FFCF46
:101C44005E015E01F4015E01F40100000000000089
:101C54000000000102020303030304040404040457
:101C64000404050505050505050505050505050522
:101C74000505060606060606060606060606060602
:101C840006060606060606060606060606060606F0
:101C940006060707070707070707070707070707D2
:101CA40007070707070707070707070707070707C0
:101CB40007070707070707070707070707070707B0
:101CC40007070707070707070707070707070707A0
:101CD4000707080808080808080808080808080882
:101CE4000808080808080808080808080808080870
:101CF4000808080808080808080808080808080860
:101D0400080808080808080808080808080808084F
:101D1400080808080808080808080808080808083F
:101D2400080808080808080808080808080808082F
:101D3400080808080808080808080808080808081F
:101D4400080808080808080808080808080808080F
:021D540008087D
:00000001FF
