:100000000C9434000C9451000C9451000C94510049
:100010000C9451000C9451000C9451000C9451001C
:100020000C9451000C9451000C9451000C9451000C
:100030000C9451000C9451000C9451000C945100FC
:100040000C9451000C9451000C9451000C945100EC
:100050000C9451000C9451000C9451000C945100DC
:100060000C9451000C94510011241FBECFEFD8E026
:10007000DEBFCDBF12E0A0E0B1E0E4EFF5E102C0E9
:1000800005900D92A031B107D9F712E0A0E1B2E0DE
:1000900001C01D92A334B107E1F70E94F7020C944E
:1000A000F80A0C9400008091780080932A028091D5
:1000B000790080933C0220912A0240913C02942FC7
:1000C00080E030E0822B932B90930101809300011C
:1000D00081E080932102EAE7F0E080818061808303
:1000E0008081806480830895009739F481E090E0F6
:1000F00090931902809318020895019721F41092A9
:100100001902109218020895AF92BF92CF92DF9217
:10011000EF92FF920F931F93609100017091010184
:1001200080E090E00E94530820E030E048EC52E488
:100130000E949B0520E030E040E85AEB0E949B05BE
:1001400020E030E048EC52E40E946E056093040128
:10015000709305018093060190930701609104015B
:1001600070910501809106019091070120E030E037
:1001700048EC5DE30E947107882364F480E090E01E
:10018000A8ECBDE38093040190930501A0930601C0
:10019000B09307018091180290911902019761F4C0
:1001A00080E090E0A0E0B0E080930401909305012E
:1001B000A0930601B09307016091040170910501BD
:1001C0008091060190910701E0903702F09038028B
:1001D00020E030E048EC52E40E9495065B016C019F
:1001E00000E010E0C801B7010E9453089B01AC0178
:1001F000C601B5010E949B050E94C503709389004A
:100200006093880080910001909101019093030117
:10021000809302011F910F91FF90EF90DF90CF909C
:10022000BF90AF900895982F8091C00085FFFCCFBC
:100230009093C60008959C018091C00085FFFCCF7B
:100240002093C6008091C00085FFFCCF832F9927A3
:1002500087FD9A958093C6000895282F8091C0004D
:1002600085FFFCCF6093C6008091C00085FFFCCF66
:100270007093C6008091C00085FFFCCF2093C6001C
:100280008091C00085FFFCCF9093C600089528E8B8
:1002900033E104C0F9013197F1F701970097D1F7E5
:1002A0000895882321F480917C00807F20C08130D4
:1002B00049F480917C00807F80937C0080917C0059
:1002C000816015C0823049F480917C00807F8093EA
:1002D0007C0080917C0082600AC0833059F4809158
:1002E0007C00807F80937C0080917C008360809381
:1002F0007C000895843051F480917C00807F80934D
:100300007C0080917C00866080937C0008950F9330
:100310001F930AE710E0F801808187608083808165
:100320008068808310923B0210923A0280913A02D8
:1003300090913B020E9451013898F80180818061C0
:1003400080838081806480831F910F91089582E073
:100350008093C00088E98093C10086E08093C2004A
:100360001092C50084E08093C4005098589A519A26
:1003700008956230710508F4CB0108953A98429AC5
:100380003B98439A3C98449A3D98459A209A249ADF
:10039000259A529A549A579A0895FC01EE0FFF1F1E
:1003A000E55DFD4F71836083009749F4613071050D
:1003B00011F4289A0895672BE1F528980895813063
:1003C000910549F46130710511F42C9A0895672B59
:1003D00081F52C9808958230910549F461307105BA
:1003E00011F42D9A0895672B21F52D9808958330E7
:1003F000910549F46130710511F45A9A0895672BFB
:10040000C1F45A9808958430910549F4613071051A
:1004100011F45C9A0895672B61F45C980895059730
:1004200041F46130710511F45F9A0895672B09F466
:100430005F9808959C01FC01EE0FFF1FE55DFD4FE5
:1004400080819181892B31F4C90161E070E00E94C3
:10045000CD01089580819181019729F4C90160E05F
:1004600070E00E94CD010895EF92FF920F931F93C9
:10047000E0E8F0E080818E7F8083808182608083ED
:1004800021E830E0D9018C9188608C938C91806157
:100490008C9380818068808380818F7B8083808142
:1004A0008062808380818F7E808380E090E0A0E006
:1004B000B1E48093260290932702A0932802B09380
:1004C0002902F90180818E7F808380818260808310
:1004D00080818B7F808388EC80931E0260911E0256
:1004E000E0902602F0902702009128021091290244
:1004F00070E0882777FD8095982F0E94A107A801BA
:1005000097010E949B059B01AC0160E876E988E9B0
:100510009BE40E94950620E030E040E85FE30E9403
:100520003D050E94C50370933E0260933D02809199
:100530003D0290913E029093380280933702809161
:100540003D0290913E029093870080938600219A0D
:10055000229A1F910F91FF90EF900895329B07C050
:100560001092220280E090E060E070E007C081E03D
:100570008093220280E090E061E070E00E94CD0173
:10058000339B07C01092230281E090E060E070E0AE
:1005900007C081E08093230281E090E061E070E099
:1005A0000E94CD01349B07C01092240282E090E0AB
:1005B00060E070E007C081E08093240282E090E078
:1005C00061E070E00E94CD01359B07C010922502CA
:1005D00083E090E060E070E007C081E08093250256
:1005E00083E090E061E070E00E94CD010895CF9338
:1005F000DF930E94BE010E9487010E9434020E9484
:10060000A701789481E090E09093190280931802FA
:1006100010920101109200010E94840080E098E095
:100620009093030180930201C1E0D0E00E94AE02EA
:1006300080912502813061F080912202813069F43D
:1006400080912302813049F480912402813029F481
:10065000109219021092180204C0D0931902C0938C
:10066000180280917A0084FF03C080E00E9453004A
:10067000609118027091190284E090E00E94CD010F
:10068000D0932002C0931F0280912102813021F576
:10069000409100015091010120910201309103012C
:1006A00080911F0290912002820F931F48175907D3
:1006B00088F4809100019091010120910201309114
:1006C000030140911F0250912002241B350B281773
:1006D000390710F00E94840080911002909111025D
:1006E00001969093110280931002809110029091D4
:1006F000110288589341A9F580911202909113023A
:1007000001969093130280931202609104017091FC
:10071000050180910601909107010E94C503609335
:100720003902209104013091050140910601509158
:1007300007018091C00085FFFCCFCA01B9010E946A
:10074000C5036093C60020910001309101018091A2
:10075000C00085FFFCCF2093C600109211021092BA
:1007600010028091140290911502A0911602B0918E
:1007700017020196A11DB11D8093140290931502DA
:10078000A0931602B093170251CFEF92FF920F93EE
:100790001F937B018C0120E030E040E05FE40E9489
:1007A000410788238CF0C801B70120E030E040E029
:1007B0005FE40E943D050E94FF079B01AC012050B1
:1007C00030404040504806C0C801B7010E94FF07B2
:1007D0009B01AC01B901CA011F910F91FF90EF90ED
:1007E0000895A0E0B0E0E7EFF3E00C94C10ADC016B
:1007F0002B01FA019C91923008F439C1EB018881F8
:10080000823008F433C1943069F4843009F02FC188
:1008100011969C9111978981981709F428C1A8E035
:10082000B1E025C1843009F421C18230A9F49230AD
:1008300009F01DC19A01AD0188E0EA010990AE01FD
:10084000E90109929E018150C1F7E2018981119667
:100850009C918923818308C1923009F407C11296C3
:100860002D903C901397EB018A819B811496AD905B
:10087000BD90CD90DC901797EC80FD800E811F819C
:100880009101281B390BB90137FF04C06627772770
:10089000621B730B603271050CF061C012161306F7
:1008A0006CF537014801062E04C09694879477941E
:1008B00067940A94D2F721E030E040E050E004C0B1
:1008C000220F331F441F551F6A95D2F72150304025
:1008D000404050402E213F21402351232115310516
:1008E0004105510521F021E030E040E050E0790180
:1008F0008A01E628F728082919293CC0232BD1F1C1
:10090000260E371E35014601062E04C096948794A4
:10091000779467940A94D2F721E030E040E050E009
:1009200004C0220F331F441F551F6A95D2F7215070
:100930003040404050402A213B214C215D2121156F
:1009400031054105510521F021E030E040E050E063
:1009500059016A01A628B728C828D9280BC08215D2
:1009600093052CF01C01AA24BB24650103C0EE24CE
:10097000FF24870111969C91D20111968C919817B2
:1009800009F445C0992339F0A80197012A193B09B8
:100990004C095D0906C0A60195012E193F09400BBF
:1009A000510B57FD08C01182338222822483358384
:1009B000468357831DC081E081833382228288274A
:1009C0009927DC01821B930BA40BB50B84839583C1
:1009D000A683B7830DC0220F331F441F551F2483E6
:1009E00035834683578382819381019793838283E2
:1009F0002481358146815781DA01C9010197A10916
:100A0000B1098F5F9F4FAF4FBF4328F30BC0918356
:100A100033822282EA0CFB1C0C1D1D1DE482F58230
:100A20000683178383E08083248135814681578143
:100A300057FF1AC0C901AA2797FDA095BA2F817048
:100A40009070A070B0705695479537952795822B7A
:100A5000932BA42BB52B84839583A683B7838281A4
:100A60009381019693838283DF0101C0D201CD017E
:100A7000CDB7DEB7E2E10C94DD0AA0E2B0E0E3E43A
:100A8000F5E00C94CD0A69837A838B839C832D8354
:100A90003E834F835887E9E0EE2EF12CEC0EFD1ECD
:100AA000CE010196B7010E94F0098E010F5E1F4F23
:100AB000CE010596B8010E94F0098A8991E0892744
:100AC0008A8BC701B801AE01475E5F4F0E94F103F8
:100AD0000E941B09A096E6E00C94E90AA0E2B0E0AF
:100AE000E4E7F5E00C94CD0A69837A838B839C83D9
:100AF0002D833E834F835887F9E0EF2EF12CEC0EC7
:100B0000FD1ECE010196B7010E94F0098E010F5E15
:100B10001F4FCE010596B8010E94F009C701B80128
:100B2000AE01475E5F4F0E94F1030E941B09A09631
:100B3000E6E00C94E90AA0E2B0E0E1EAF5E00C940A
:100B4000C10A69837A838B839C832D833E834F8381
:100B50005887CE010196BE01675F7F4F0E94F00962
:100B6000CE010596BE016F5E7F4F0E94F009998508
:100B7000923088F089898230C8F0943019F482303C
:100B800051F404C0843029F4923081F488E091E07B
:100B9000C6C0923049F420E09A858A89981321E0F2
:100BA0002A87CE010996BBC0823049F420E09A859D
:100BB0008A89981321E02A8BCE014196B0C02D84FA
:100BC0003E844F8458886D887E888F88988CEE2468
:100BD000FF248701AA24BB24650140E050E060E0C7
:100BE00070E0E0E0F0E0C10181709070892BE9F0E5
:100BF000E60CF71C081D191D9A01AB012A0D3B1DBF
:100C00004C1D5D1D80E090E0A0E0B0E0E614F7042C
:100C10000805190520F481E090E0A0E0B0E0BA01F9
:100C2000A901480F591F6A1F7B1FAA0CBB1CCC1CB3
:100C3000DD1C97FE08C081E090E0A0E0B0E0A82AAB
:100C4000B92ACA2ADB2A3196E032F10549F0660C4E
:100C5000771C881C991C5694479437942794C3CFCB
:100C6000FA85EA892B893C898B859C85280F391F59
:100C70002E5F3F4F17C0CA0181709070892B61F0C1
:100C800016950795F794E79480E090E0A0E0B0E82F
:100C9000E82AF92A0A2B1B2B7695679557954795D5
:100CA0002F5F3F4F77FDE7CF0CC0440F551F661FE6
:100CB000771F17FD4160EE0CFF1C001F111F215014
:100CC0003040403090E0590790E0690790E47907A0
:100CD00060F32B8F3C8FDB01CA018F779070A0707F
:100CE000B07080349105A105B10561F447FD0AC0DB
:100CF000E114F1040105110529F0405C5F4F6F4FCD
:100D00007F4F40781A8EFE1711F081E08A8F4D8F49
:100D10005E8F6F8F78A383E0898FCE0149960E9402
:100D20001B09A096E2E10C94DD0AA8E1B0E0EBE932
:100D3000F6E00C94C90A69837A838B839C832D83A4
:100D40003E834F835887B9E0EB2EF12CEC0EFD1E4D
:100D5000CE010196B7010E94F0098E010F5E1F4F70
:100D6000CE010596B8010E94F0092985223008F4C9
:100D70007EC03989323010F4B8017CC08A859A89E6
:100D800089278A87243011F0223031F4231709F0A3
:100D90006EC068E071E06EC0343039F41D861E8686
:100DA0001F86188A1C861B8604C0323021F484E01A
:100DB0008987B7015FC02B853C858B899C89281B5F
:100DC000390B3C872B87ED84FE840F851889AD880D
:100DD000BE88CF88D88CEA14FB040C051D0540F4AE
:100DE000EE0CFF1C001F111F215030403C872B8749
:100DF00020E030E040E050E080E090E0A0E0B0E4AF
:100E000060E070E0EA14FB040C051D0540F0282B9F
:100E1000392B4A2B5B2BEA18FB080C091D09B695E8
:100E2000A79597958795EE0CFF1C001F111F6F5F0C
:100E30007F4F6F31710531F7DA01C9018F779070FB
:100E4000A070B07080349105A105B10561F427FD53
:100E50000AC0E114F1040105110529F0205C3F4F9F
:100E60004F4F5F4F20782D873E874F87588BBE01AD
:100E7000675F7F4FCB010E941B096896EAE00C94E4
:100E8000E50AA8E1B0E0E7E4F7E00C94CD0A698355
:100E90007A838B839C832D833E834F83588789E09D
:100EA000E82EF12CEC0EFD1ECE010196B7010E943A
:100EB000F0098E010F5E1F4FCE010596B8010E940A
:100EC000F0098985823040F08989823028F0C70195
:100ED000B8010E94680A01C08FEF6896E6E00C94A2
:100EE000E90AA8E1B0E0E7E7F7E00C94CD0A6983EE
:100EF0007A838B839C832D833E834F83588789E03D
:100F0000E82EF12CEC0EFD1ECE010196B7010E94D9
:100F1000F0098E010F5E1F4FCE010596B8010E94A9
:100F2000F0098985823040F08989823028F0C70134
:100F3000B8010E94680A01C081E06896E6E00C945E
:100F4000E90AA8E0B0E0E7EAF7E00C94CA0A9B01DE
:100F5000AC0183E08983DA01C9018827B7FD839555
:100F60009927AA27BB27B82E211531054105510520
:100F700019F482E089833AC08823A9F0203080E008
:100F8000380780E0480780E8580729F460E070E0FF
:100F900080E09FEC30C0EE24FF248701E21AF30AC0
:100FA000040B150B02C079018A018EE1C82ED12CE9
:100FB000DC82CB82ED82FE820F831887C801B701E5
:100FC0000E94CC0801971816190684F4082E04C054
:100FD000EE0CFF1C001F111F0A94D2F7ED82FE8257
:100FE0000F831887C81AD90ADC82CB82BA82CE0155
:100FF00001960E941B092896E9E00C94E60AACE0F1
:10100000B0E0E5E0F8E00C94D10A69837A838B8341
:101010009C83CE010196BE016B5F7F4F0E94F00959
:101020008D81823061F1823050F1843021F48E81E3
:10103000882351F12EC02F81388537FD20C06E8165
:101040002F3131051CF06623F9F023C08EE190E0CA
:10105000821B930B29853A854B855C8504C0569588
:101060004795379527958A95D2F76623B1F0509525
:101070004095309521953F4F4F4F5F4F0EC020E078
:1010800030E040E050E009C02FEF3FEF4FEF5FE767
:1010900004C020E030E040E050E8B901CA012C96DD
:1010A000E2E00C94ED0AA8E0B0E0E9E5F8E00C9489
:1010B000C90A7B018C01611571058105910519F43F
:1010C00082E0898360C083E089838EE1C82ED12CC1
:1010D000DC82CB82ED82FE820F831887C801B701C4
:1010E0000E94CC08FC013197F7FF3BC02227332731
:1010F0002E1B3F0B57016801022E04C0D694C794E3
:10110000B794A7940A94D2F740E050E060E070E012
:1011100081E090E0A0E0B0E004C0880F991FAA1F12
:10112000BB1F2A95D2F70197A109B1098E219F21F2
:10113000A023B1230097A105B10521F041E050E0C3
:1011400060E070E04A295B296C297D294D835E832C
:101150006F8378878EE190E08E1B9F0B9C838B833F
:1011600012C0309781F00E2E04C0EE0CFF1C001F41
:10117000111F0A94D2F7ED82FE820F831887CE1AD0
:10118000DF0ADC82CB821A82CE0101960E941B0903
:101190002896EAE00C94E50AEF92FF920F931F93D2
:1011A0007B018C0180E0E81680E0F80681E008070A
:1011B00080E0180788F48FEFE816F10401051105A7
:1011C00031F028F088E090E0A0E0B0E017C080E0C7
:1011D00090E0A0E0B0E012C080E0E81680E0F80601
:1011E00080E0080781E0180728F088E190E0A0E09F
:1011F000B0E004C080E190E0A0E0B0E020E230E0A8
:1012000040E050E0281B390B4A0B5B0B04C01695DD
:101210000795F794E7948A95D2F7F701E05FFE4FC0
:101220008081281B310941095109C9011F910F9182
:10123000FF90EF900895DF92EF92FF920F931F932C
:10124000FC01E480F58006811781D18080818230A5
:1012500048F480E090E0A0E1B0E0E82AF92A0A2B07
:101260001B2BA5C0843009F49FC0823021F4EE24EA
:10127000FF24870105C0E114F1040105110519F4EB
:10128000E0E0F0E096C0628173819FEF62387907F9
:101290000CF05BC022E83FEF261B370B2A313105EB
:1012A0002CF020E030E040E050E02AC0B801A70177
:1012B000022E04C076956795579547950A94D2F704
:1012C00081E090E0A0E0B0E004C0880F991FAA1F61
:1012D000BB1F2A95D2F70197A109B1098E219F2141
:1012E000A023B1230097A105B10521F081E090E092
:1012F000A0E0B0E09A01AB01282B392B4A2B5B2BE5
:10130000DA01C9018F779070A070B07080349105B8
:10131000A105B10539F427FF09C0205C3F4F4F4FAD
:101320005F4F04C0215C3F4F4F4F5F4FE0E0F0E064
:101330002030A0E03A07A0E04A07A0E45A0710F0E6
:10134000E1E0F0E079018A0127C06038710564F5B9
:10135000FB01E158FF4FD801C7018F779070A07053
:10136000B07080349105A105B10539F4E7FE0DC0D8
:1013700080E490E0A0E0B0E004C08FE390E0A0E063
:10138000B0E0E80EF91E0A1F1B1F17FF05C01695D7
:101390000795F794E794319687E016950795F794AB
:1013A000E7948A95D1F705C0EE24FF248701EFEF7B
:1013B000F0E06E2F679566276795902F9F77D794FB
:1013C000DD24D7948E2F8695492F462B582F5D29E3
:1013D000B701CA011F910F91FF90EF90DF90089520
:1013E000FC01DB01408151812281622F6F7770E027
:1013F000221F2227221F9381892F880F822B282FBB
:1014000030E0991F9927991F11969C9311972115E8
:101410003105A9F5411551056105710511F482E009
:1014200037C082E89FEF13969C938E9312979A0190
:10143000AB0167E0220F331F441F551F6A95D1F798
:1014400083E08C930DC0220F331F441F551F12964B
:101450008D919C911397019713969C938E9312975D
:10146000203080E0380780E0480780E4580758F3D0
:1014700014962D933D934D935C93179708952F3FAA
:10148000310579F4411551056105710519F484E0C0
:101490008C93089564FF03C081E08C9312C01C926A
:1014A00010C02F57304013963C932E93129783E031
:1014B0008C9387E0440F551F661F771F8A95D1F7DD
:1014C000706414964D935D936D937C931797089574
:1014D0001F93DC01FB019C91923008F447C080818E
:1014E000823008F443C0943051F411961C9184303A
:1014F00099F58181682F70E0611B71093FC08430CC
:1015000021F0923031F48230B9F18181882389F160
:101510002DC011961C9111978230F1F0818118171E
:10152000D9F412962D913C91139782819381821761
:10153000930794F028173907BCF014968D919D916C
:101540000D90BC91A02D24813581468157812817AB
:1015500039074A075B0718F4112341F00AC08217C4
:101560009307A407B50740F4112319F061E070E078
:1015700005C06FEF7FEF02C060E070E0CB011F910C
:1015800008952F923F924F925F926F927F928F9227
:101590009F92AF92BF92CF92DF92EF92FF920F9302
:1015A0001F93CF93DF93CDB7DEB7CA1BDB0B0FB60C
:1015B000F894DEBF0FBECDBF09942A8839884888C9
:1015C0005F846E847D848C849B84AA84B984C8845F
:1015D000DF80EE80FD800C811B81AA81B981CE0F56
:1015E000D11D0FB6F894DEBF0FBECDBFED0108953B
:0415F000F894FFCF9D
:1015F400010000086F12833A0000000000000000A0
:1016040000010202030303030404040404040404A5
:101614000505050505050505050505050505050576
:101624000606060606060606060606060606060656
:101634000606060606060606060606060606060646
:101644000707070707070707070707070707070726
:101654000707070707070707070707070707070716
:101664000707070707070707070707070707070706
:1016740007070707070707070707070707070707F6
:1016840008080808080808080808080808080808D6
:1016940008080808080808080808080808080808C6
:1016A40008080808080808080808080808080808B6
:1016B40008080808080808080808080808080808A6
:1016C4000808080808080808080808080808080896
:1016D4000808080808080808080808080808080886
:1016E4000808080808080808080808080808080876
:1016F4000808080808080808080808080808080866
:00000001FF
