:100000000C9434000C9451000C9451000C94510049
:100010000C9451000C9451000C9451000C9451001C
:100020000C9451000C9451000C9451000C9451000C
:100030000C9451000C9451000C9451000C945100FC
:100040000C9451000C9451000C94AA000C94510093
:100050000C9451000C9442020C9451000C945100E9
:100060000C9451000C94510011241FBECFEFD8E026
:10007000DEBFCDBF12E0A0E0B1E0ECE2F6E102C0ED
:1000800005900D92AC30B107D9F712E0ACE0B2E0C8
:1000900001C01D92AE36B107E1F70E9406030C9431
:1000A000140B0C9400008FEF9FEF0895809178005F
:1000B00080934A028091790080934D0220914A02F8
:1000C00040914D02942F80E030E0822B932B90934F
:1000D0000D0280930C020895982F8091C00085FF37
:1000E000FCCF9093C60008959C018091C00085FFCD
:1000F000FCCF2093C6008091C00085FFFCCF832FEA
:10010000992787FD9A958093C6000895282F80919E
:10011000C00085FFFCCF6093C6008091C00085FFC2
:10012000FCCF7093C6008091C00085FFFCCF209368
:10013000C6008091C00085FFFCCF9093C600089553
:1001400028E833E104C0F9013197F1F701970097EE
:10015000D1F708951F920F920FB60F9211242F938B
:100160003F938F939F93AF93BF93EF93FF938091B0
:10017000360290913702892B09F068C080915A02AB
:1001800090915B02909359028093580280915C0297
:1001900090915D0290935B0280935A0280915E027F
:1001A00090915F0290935D0280935C028091600267
:1001B0009091610290935F0280935E028091C600ED
:1001C00090E0909361028093600280915802909138
:1001D00059028F3F910509F0BBC080915A0290915E
:1001E0005B02892B09F0B4C080915C0290915D02A2
:1001F0008F3F910509F0ACC080915E0290915F0243
:10020000892B09F0A5C081E090E09093370280939C
:10021000360285E090E090931D0280931C0280914D
:10022000600290916102019719F48EE090E009C09C
:100230008091600290916102029709F089C08AE082
:1002400090E090931F0280931E0282C0809136023C
:1002500090913702019709F07BC020911C023091E8
:100260001D0280911E0290911F0282179307B0F029
:10027000E0911C02F0911D028091C60090E0EE0F0B
:10028000FF1FE85AFD4F9183808380911C0290915B
:100290001D02019690931D0280931C0220911C0266
:1002A00030911D0280911E0290911F0282179307C8
:1002B00008F04EC010923702109236028091600210
:1002C000909161028130910531F5909357028093AE
:1002D000560220E030E0F901EE0FFF1FEE59FD4F0E
:1002E00080819181F901EE0FFF1FE05EFD4F918348
:1002F00080832F5F3F4F2930310569F78091740269
:100300009091750290934F0280934E021092570283
:100310001092560204C08091600290916102809117
:10032000120290911302A0911402B09115028093D1
:10033000160290931702A0931802B09319028091AD
:100340001A0290911B02019690931B0280931A024D
:10035000FF91EF91BF91AF919F918F913F912F911D
:100360000F900FBE0F901F90189584B5826084BDCA
:1003700084B5816084BD84B5806884BD84B58064A3
:1003800084BD84B5806284BD84B5806184BD85B53B
:10039000887085BD85B58E7F85BD85B5826085BD3C
:1003A00085B58B7F85BD17BC18BC559A569A0895A4
:1003B00084B58E7F84BD84B58D7F84BD85B588600E
:1003C00085BD85B5816085BD85B58D7F85BD85B5CC
:1003D0008B7F85BD8FE187BD0895882321F48091AF
:1003E0007C00807F20C0813049F480917C00807F38
:1003F00080937C0080917C00816015C0823049F43C
:1004000080917C00807F80937C0080917C00826062
:100410000AC0833059F480917C00807F80937C00F7
:1004200080917C00836080937C000895843051F437
:1004300080917C00807F80937C0080917C0086602E
:1004400080937C0008950F931F930AE710E0F80152
:1004500080818760808380818068808380914B0267
:1004600090914C020E94ED013898F80180818061E2
:1004700080838081886080838081806480831F91F5
:100480000F9108951F920F920FB60F9211240F93A0
:100490001F932F933F934F935F936F937F938F930C
:1004A0009F93AF93BF93EF93FF930AE710E0F80198
:1004B0008081877F808380914B0290914C02809154
:1004C000780080934A028091790080934D022091B8
:1004D0004A0240914D02942F80E030E0822B932B12
:1004E00090930D0280930C0280914B0290914C02EC
:1004F0000E94ED01F80180818061808380818860A5
:100500008083808180648083FF91EF91BF91AF9160
:100510009F918F917F916F915F914F913F912F911B
:100520001F910F910F900FBE0F901F90189552982A
:100530005A9A579A08954A9B07C081E090E0909399
:1005400035028093340208951092350210923402DD
:100550000895E0E8F0E080818E7F808380818D7F48
:100560008083E1E8F0E08081886080838081816021
:10057000808380818D7F808380818460808380E11F
:1005800090E090938900809388000895E0E8F0E07F
:1005900080818E7F8083808182608083A1E8B0E04B
:1005A0008C9188608C938C9180618C938081806821
:1005B000808380818F7B8083808180628083808143
:1005C0008F7E80838C9181608C938C918D7F8C93B6
:1005D0008C918B7F8C938EE48093870080E2809354
:1005E0008600219A229A089582E08093C00088E9CB
:1005F0008093C10086E08093C2001092C50085E11F
:100600008093C4005098589A519A08957F928F927F
:100610009F92AF92BF92CF92DF92EF92FF920F9391
:100620001F93CF93DF930E94D8010E9423020E9460
:10063000C6020E94F402789499249A9477247394C1
:100640003DE4832EC1E0D0E0A99BFECF6091120271
:100650007091130280911402909115022FE632E1FD
:1006600043E85AE30E94E805609312027093130274
:100670008093140290931502809156029091570234
:10068000892B09F07AC04A9B05C0D0933502C093EC
:10069000340204C010923502109234028091340268
:1006A00090913502892B99F46091000170910101BC
:1006B0008091020190910301E0902002F0902102CC
:1006C00020E030E048E453E40E940F0712C060913C
:1006D0000001709101018091020190910301E0906D
:1006E0000C02F0900D0220E030E040E85AE30E9456
:1006F00015065B016C0100E010E0C801B7010E9423
:100700006F089B01AC01C601B5010E9415060E944D
:100710003F04709333026093320260913202709111
:100720003302E0900001F09001010091020110916C
:10073000030180E090E00E946F08A80197010E94E9
:10074000BB07181674F4609100017091010180914B
:100750000201909103010E943F0470933302609361
:100760003202809132029091330280913202909154
:1007700033029093890080938800809110029091B9
:100780001102019690931102809310028091100241
:1007900090911102885E934009F06AC08091C00078
:1007A00085FFFCCF9092C6008091C00085FFFCCFF2
:1007B0001092C6008091C00085FFFCCF9092C600C9
:1007C0008091C00085FFFCCF1092C6008091C000D0
:1007D00085FFFCCF7092C6006091120270911302E7
:1007E00080911402909115020E948600209132029D
:1007F000309133028091C00085FFFCCF2093C6006A
:10080000609112027091130280911402909115026E
:10081000209116023091170240911802509119024E
:100820000E94B70560935002709351028093520268
:100830009093530260915002709151028091520244
:10084000909153020E9486008091C00085FFFCCFEA
:100850008092C60020910C0230910D028091C00060
:1008600085FFFCCF2093C600109211021092100257
:10087000A99AEACE6230710508F4CB010895EF928F
:10088000FF920F931F937B018C0120E030E040E04A
:100890005FE40E94EB0788238CF0C801B70120E0D9
:1008A00030E040E05FE40E94B7050E941B089B0116
:1008B000AC01205030404040504806C0C801B7014C
:1008C0000E941B089B01AC01B901CA011F910F9145
:1008D000FF90EF900895A0E0B0E0E1E7F4E00C9421
:1008E000DD0ADC012B01FA019C91923008F439C138
:1008F000EB018881823008F433C1943069F484308C
:1009000009F02FC111969C9111978981981709F4CC
:1009100028C1A4E0B1E025C1843009F421C18230AE
:10092000A9F4923009F01DC19A01AD0188E0EA01F5
:100930000990AE01E90109929E018150C1F7E201DF
:10094000898111969C918923818308C1923009F491
:1009500007C112962D903C901397EB018A819B81E1
:100960001496AD90BD90CD90DC901797EC80FD80F3
:100970000E811F819101281B390BB90137FF04C07B
:1009800066277727621B730B603271050CF061C01C
:10099000121613066CF537014801062E04C0969412
:1009A0008794779467940A94D2F721E030E040E08E
:1009B00050E004C0220F331F441F551F6A95D2F721
:1009C00021503040404050402E213F2140235123B0
:1009D000211531054105510521F021E030E040E0CD
:1009E00050E079018A01E628F728082919293CC036
:1009F000232BD1F1260E371E35014601062E04C0E9
:100A000096948794779467940A94D2F721E030E023
:100A100040E050E004C0220F331F441F551F6A9569
:100A2000D2F721503040404050402A213B214C21F8
:100A30005D21211531054105510521F021E030E00E
:100A400040E050E059016A01A628B728C828D928F3
:100A50000BC0821593052CF01C01AA24BB24650150
:100A600003C0EE24FF24870111969C91D2011196B8
:100A70008C91981709F445C0992339F0A801970182
:100A80002A193B094C095D0906C0A60195012E19DA
:100A90003F09400B510B57FD08C01182338222825F
:100AA00024833583468357831DC081E0818333824D
:100AB000228288279927DC01821B930BA40BB50B9C
:100AC00084839583A683B7830DC0220F331F441FF1
:100AD000551F2483358346835783828193810197F1
:100AE000938382832481358146815781DA01C9014C
:100AF0000197A109B1098F5F9F4FAF4FBF4328F303
:100B00000BC0918333822282EA0CFB1C0C1D1D1D3D
:100B1000E482F5820683178383E080832481358114
:100B20004681578157FF1AC0C901AA2797FDA09592
:100B3000BA2F81709070A070B07056954795379518
:100B40002795822B932BA42BB52B84839583A68387
:100B5000B78382819381019693838283DF0101C0F1
:100B6000D201CD01CDB7DEB7E2E10C94F90AA0E2E3
:100B7000B0E0EDEBF5E00C94E90A69837A838B83AE
:100B80009C832D833E834F835887E9E0EE2EF12C22
:100B9000EC0EFD1ECE010196B7010E940C0A8E01DB
:100BA0000F5E1F4FCE010596B8010E940C0A8A897C
:100BB00091E089278A8BC701B801AE01475E5F4F7C
:100BC0000E946B040E943709A096E6E00C94050B86
:100BD000A0E2B0E0EEEEF5E00C94E90A69837A83D6
:100BE0008B839C832D833E834F835887F9E0EF2EC0
:100BF000F12CEC0EFD1ECE010196B7010E940C0AED
:100C00008E010F5E1F4FCE010596B8010E940C0A9F
:100C1000C701B801AE01475E5F4F0E946B040E949E
:100C20003709A096E6E00C94050BA0E2B0E0EBE1FA
:100C3000F6E00C94DD0A69837A838B839C832D8391
:100C40003E834F835887CE010196BE01675F7F4F79
:100C50000E940C0ACE010596BE016F5E7F4F0E9476
:100C60000C0A9985923088F089898230C8F09430D6
:100C700019F4823051F404C0843029F4923081F4A4
:100C800084E091E0C6C0923049F420E09A858A89D8
:100C9000981321E02A87CE010996BBC0823049F41F
:100CA00020E09A858A89981321E02A8BCE0141960B
:100CB000B0C02D843E844F8458886D887E888F888C
:100CC000988CEE24FF248701AA24BB24650140E010
:100CD00050E060E070E0E0E0F0E0C1018170907011
:100CE000892BE9F0E60CF71C081D191D9A01AB01D0
:100CF0002A0D3B1D4C1D5D1D80E090E0A0E0B0E0A2
:100D0000E614F7040805190520F481E090E0A0E05E
:100D1000B0E0BA01A901480F591F6A1F7B1FAA0C36
:100D2000BB1CCC1CDD1C97FE08C081E090E0A0E05D
:100D3000B0E0A82AB92ACA2ADB2A3196E032F105A6
:100D400049F0660C771C881C991C5694479437947C
:100D50002794C3CFFA85EA892B893C898B859C85AA
:100D6000280F391F2E5F3F4F17C0CA018170907046
:100D7000892B61F016950795F794E79480E090E051
:100D8000A0E0B0E8E82AF92A0A2B1B2B7695679594
:100D9000579547952F5F3F4F77FDE7CF0CC0440F26
:100DA000551F661F771F17FD4160EE0CFF1C001FCB
:100DB000111F21503040403090E0590790E0690702
:100DC00090E4790760F32B8F3C8FDB01CA018F77AA
:100DD0009070A070B07080349105A105B10561F4E8
:100DE00047FD0AC0E114F1040105110529F0405C3A
:100DF0005F4F6F4F7F4F40781A8EFE1711F081E0E2
:100E00008A8F4D8F5E8F6F8F78A383E0898FCE019D
:100E100049960E943709A096E2E10C94F90AA8E1EC
:100E2000B0E0E5E1F7E00C94E50A69837A838B830F
:100E30009C832D833E834F835887B9E0EB2EF12CA2
:100E4000EC0EFD1ECE010196B7010E940C0A8E0128
:100E50000F5E1F4FCE010596B8010E940C0A29852E
:100E6000223008F47EC03989323010F4B8017CC0D9
:100E70008A859A8989278A87243011F0223031F4B3
:100E8000231709F06EC064E071E06EC0343039F4AD
:100E90001D861E861F86188A1C861B8604C032305B
:100EA00021F484E08987B7015FC02B853C858B895D
:100EB0009C89281B390B3C872B87ED84FE840F858A
:100EC0001889AD88BE88CF88D88CEA14FB040C053D
:100ED0001D0540F4EE0CFF1C001F111F2150304077
:100EE0003C872B8720E030E040E050E080E090E05D
:100EF000A0E0B0E460E070E0EA14FB040C051D051E
:100F000040F0282B392B4A2B5B2BEA18FB080C09E5
:100F10001D09B695A79597958795EE0CFF1C001FA8
:100F2000111F6F5F7F4F6F31710531F7DA01C90112
:100F30008F779070A070B07080349105A105B105D5
:100F400061F427FD0AC0E114F1040105110529F03F
:100F5000205C3F4F4F4F5F4F20782D873E874F8754
:100F6000588BBE01675F7F4FCB010E94370968969F
:100F7000EAE00C94010BA8E1B0E0E1ECF7E00C949E
:100F8000E90A69837A838B839C832D833E834F8315
:100F9000588789E0E82EF12CEC0EFD1ECE0101965B
:100FA000B7010E940C0A8E010F5E1F4FCE010596FD
:100FB000B8010E940C0A8985823040F0898982300C
:100FC00028F0C701B8010E94840A01C08FEF68961B
:100FD000E6E00C94050BA8E1B0E0E1EFF7E00C943B
:100FE000E90A69837A838B839C832D833E834F83B5
:100FF000588789E0E82EF12CEC0EFD1ECE010196FB
:10100000B7010E940C0A8E010F5E1F4FCE0105969C
:10101000B8010E940C0A8985823040F089898230AB
:1010200028F0C701B8010E94840A01C08FEF6896BA
:10103000E6E00C94050BACE0B0E0E1E2F8E00C94E3
:10104000ED0A69837A838B839C83CE010196BE016E
:101050006B5F7F4F0E940C0A8D81823061F182307C
:1010600050F1843021F48E81882351F12EC02F81DC
:10107000388537FD20C06E812F3131051CF0662385
:10108000F9F023C08EE190E0821B930B29853A850D
:101090004B855C8504C056954795379527958A956D
:1010A000D2F76623B1F050954095309521953F4F8A
:1010B0004F4F5F4F0EC020E030E040E050E009C0ED
:1010C0002FEF3FEF4FEF5FE704C020E030E040E05C
:1010D00050E8B901CA012C96E2E00C94090BA8E093
:1010E000B0E0E5E7F8E00C94E50A7B018C016115BE
:1010F00071058105910519F482E0898360C083E060
:1011000089838EE1C82ED12CDC82CB82ED82FE82D7
:101110000F831887C801B7010E94E808FC013197C6
:10112000F7FF3BC0222733272E1B3F0B57016801D7
:10113000022E04C0D694C794B794A7940A94D2F709
:1011400040E050E060E070E081E090E0A0E0B0E0DE
:1011500004C0880F991FAA1FBB1F2A95D2F70197B9
:10116000A109B1098E219F21A023B1230097A105D8
:10117000B10521F041E050E060E070E04A295B29D0
:101180006C297D294D835E836F8378878EE190E0A3
:101190008E1B9F0B9C838B8312C0309781F00E2E89
:1011A00004C0EE0CFF1C001F111F0A94D2F7ED8241
:1011B000FE820F831887CE1ADF0ADC82CB821A8266
:1011C000CE0101960E9437092896EAE00C94010BA3
:1011D000EF92FF920F931F937B018C0180E0E81642
:1011E00080E0F80681E0080780E0180788F48FEFB8
:1011F000E816F1040105110531F028F088E090E0CF
:10120000A0E0B0E017C080E090E0A0E0B0E012C045
:1012100080E0E81680E0F80680E0080781E0180723
:1012200028F088E190E0A0E0B0E004C080E190E028
:10123000A0E0B0E020E230E040E050E0281B390BB5
:101240004A0B5B0B04C016950795F794E7948A95B3
:10125000D2F7F701E45FFE4F8081281B3109410975
:101260005109C9011F910F91FF90EF900895DF92EE
:10127000EF92FF920F931F93FC01E480F5800681AB
:101280001781D1808081823048F480E090E0A0E135
:10129000B0E0E82AF92A0A2B1B2BA5C0843009F4F8
:1012A0009FC0823021F4EE24FF24870105C0E114A1
:1012B000F1040105110519F4E0E0F0E096C0628147
:1012C00073819FEF623879070CF05BC022E83FEF33
:1012D000261B370B2A3131052CF020E030E040E0AE
:1012E00050E02AC0B801A701022E04C07695679588
:1012F000579547950A94D2F781E090E0A0E0B0E0DE
:1013000004C0880F991FAA1FBB1F2A95D2F7019707
:10131000A109B1098E219F21A023B1230097A10526
:10132000B10521F081E090E0A0E0B0E09A01AB01CE
:10133000282B392B4A2B5B2BDA01C9018F77907050
:10134000A070B07080349105A105B10539F427FF74
:1013500009C0205C3F4F4F4F5F4F04C0215C3F4F9F
:101360004F4F5F4FE0E0F0E02030A0E03A07A0E010
:101370004A07A0E45A0710F0E1E0F0E079018A01A1
:1013800027C06038710564F5FB01E158FF4FD801B3
:10139000C7018F779070A070B07080349105A1055F
:1013A000B10539F4E7FE0DC080E490E0A0E0B0E0C4
:1013B00004C08FE390E0A0E0B0E0E80EF91E0A1F41
:1013C0001B1F17FF05C016950795F794E7943196F4
:1013D00087E016950795F794E7948A95D1F705C0AD
:1013E000EE24FF248701EFEFF0E06E2F679566276C
:1013F0006795902F9F77D794DD24D7948E2F86956D
:10140000492F462B582F5D29B701CA011F910F9113
:10141000FF90EF90DF900895FC01DB014081518146
:101420002281622F6F7770E0221F2227221F938173
:10143000892F880F822B282F30E0991F9927991F19
:1014400011969C93119721153105A9F54115510568
:101450006105710511F482E037C082E89FEF1396B1
:101460009C938E9312979A01AB0167E0220F331F72
:10147000441F551F6A95D1F783E08C930DC0220F4E
:10148000331F441F551F12968D919C9113970197FE
:1014900013969C938E931297203080E0380780E05B
:1014A000480780E4580758F314962D933D934D93C5
:1014B0005C93179708952F3F310579F44115510535
:1014C0006105710519F484E08C93089564FF03C0ED
:1014D00081E08C9312C01C9210C02F57304013969D
:1014E0003C932E93129783E08C9387E0440F551F13
:1014F000661F771F8A95D1F7706414964D935D939C
:101500006D937C93179708951F93DC01FB019C91C9
:10151000923008F447C08081823008F443C0943090
:1015200051F411961C91843099F58181682F70E0F7
:10153000611B71093FC0843021F0923031F4823058
:10154000B9F18181882389F12DC011961C911197E1
:101550008230F1F081811817D9F412962D913C91C7
:101560001397828193818217930794F02817390784
:10157000BCF014968D919D910D90BC91A02D24816D
:10158000358146815781281739074A075B0718F4C8
:10159000112341F00AC082179307A407B50740F44E
:1015A000112319F061E070E005C06FEF7FEF02C01A
:1015B00060E070E0CB011F9108952F923F924F920F
:1015C0005F926F927F928F929F92AF92BF92CF92D3
:1015D000DF92EF92FF920F931F93CF93DF93CDB7DC
:1015E000DEB7CA1BDB0B0FB6F894DEBF0FBECDBF54
:1015F00009942A88398848885F846E847D848C8425
:101600009B84AA84B984C884DF80EE80FD800C812D
:101610001B81AA81B981CE0FD11D0FB6F894DEBF10
:0C1620000FBECDBFED010895F894FFCF80
:10162C0000409C4600000000000000000001020287
:10163C00030303030404040404040404050505055E
:10164C00050505050505050505050505060606063A
:10165C00060606060606060606060606060606061E
:10166C00060606060606060606060606070707070A
:10167C0007070707070707070707070707070707EE
:10168C0007070707070707070707070707070707DE
:10169C0007070707070707070707070707070707CE
:1016AC0007070707070707070707070708080808BA
:1016BC00080808080808080808080808080808089E
:1016CC00080808080808080808080808080808088E
:1016DC00080808080808080808080808080808087E
:1016EC00080808080808080808080808080808086E
:1016FC00080808080808080808080808080808085E
:10170C00080808080808080808080808080808084D
:10171C00080808080808080808080808080808083D
:0C172C0008080808080808080808080851
:00000001FF
