:100000000C9434000C9451000C9451000C94510049
:100010000C9451000C9451000C9451000C9451001C
:100020000C9451000C9451000C9451000C9451000C
:100030000C9451000C9451000C9451000C945100FC
:100040000C9451000C9451000C9493010C945100A9
:100050000C9451000C9451000C9451000C945100DC
:100060000C9451000C94510011241FBECFEFD8E026
:10007000DEBFCDBF12E0A0E0B1E0EAE8F0E102C0EF
:1000800005900D92AA30B107D9F712E0AAE0B2E0CC
:1000900001C01D92A937B107E1F70E94EC020C9450
:1000A00043080C9400001F9360910C0270910D02A4
:1000B00080910E0290910F02209110023091110256
:1000C000409112025091130210E00E94100520E0AE
:1000D00030E040E05FE30E946E0588230CF411E0FD
:1000E00081E0812790E01F91089581E090E00895DC
:1000F000982F8091C00085FFFCCF9093C600089593
:100100009C018091C00085FFFCCF2093C6008091A8
:10011000C00085FFFCCF832F992787FD9A95809398
:10012000C6000895282F8091C00085FFFCCF609302
:10013000C6008091C00085FFFCCF7093C6008091FF
:10014000C00085FFFCCF2093C6008091C00085FFD2
:10015000FCCF9093C600089528E833E104C0F9016C
:100160003197F1F701970097D1F70895E0E8F0E0B3
:1001700080818E7F808380818D7F8083E1E8F0E0C5
:1001800080818860808380818160808380818D7F91
:10019000808380818460808380E190E090938900F7
:1001A00080938800089582E08093C00088E980935E
:1001B000C10086E08093C2001092C50084E0809365
:1001C000C4005098589A519A08956230710508F405
:1001D000CB01089584B5826084BD84B5816084BDFF
:1001E00084B5806884BD84B5806484BD84B5806234
:1001F00084BD84B5806184BD85B5877F85BD85B5A7
:100200008E7F85BD85B5826085BD85B58B7F85BDBB
:1002100017BC18BC559A569A0895E0EBF0E080811F
:100220008260808380818160808380818068808318
:10023000808180648083808180628083808180610E
:100240008083E1EBF0E08081877F808380818E7FF7
:10025000808380818260808380818B7F8083109205
:10026000B3001092B400539A239A089517BC88BD26
:1002700008951092B3008093B40008953898399887
:100280003A983B98549A579A08958130910511F401
:100290005C9A0895892B09F45C9808958130910542
:1002A00011F45F9A0895892B09F45F98089580915D
:1002B0001E0290911F02892B49F481E090E09093F7
:1002C0001F0280931E020E944501089580911E0224
:1002D00090911F02019741F410921F0210921E028A
:1002E00080E090E00E944501089580912002909165
:1002F0002102892B49F481E090E0909321028093C0
:1003000020020E944E0108958091200290912102C6
:10031000019741F4109221021092200280E090E0B7
:100320000E944E0108951F920F920FB60F92112452
:100330002F933F934F935F936F937F938F939F93ED
:10034000AF93BF93EF93FF930E94570180911A02DE
:1003500090911B02892B09F065C080914702909112
:100360004802909346028093450280914902909101
:100370004A02909348028093470280914B029091E9
:100380004C0290934A028093490280914D029091D1
:100390004E0290934C0280934B028091C60090E0F5
:1003A00090934E0280934D028091450290914602B7
:1003B0008F3F910509F0CBC0809147029091480290
:1003C000892B09F0C4C08091490290914A028F3F65
:1003D000910509F0BCC080914B0290914C02892B91
:1003E00009F0B5C081E090E090931B0280931A025F
:1003F00085E090E0909317028093160280914D0261
:1004000090914E02019739F080914D0290914E02E9
:10041000029709F09CC089E190E0909319028093C3
:10042000180295C080911A0290911B02019709F061
:100430008EC020911602309117028091180290917F
:10044000190282179307B0F0E0911602F09117029B
:100450008091C60090E0EE0FFF1FEB5BFD4F918394
:100460008083809116029091170201969093170253
:100470008093160220911602309117028091180283
:10048000909119028217930708F061C010921B0225
:1004900010921A0280914D0290914E028130910586
:1004A000C9F5909344028093430220E030E0F901C3
:1004B000EE0FFF1FE15BFD4F80819181F901E95D46
:1004C000FD4F80832F5F3F4F2431310581F7E0914D
:1004D0000001F0E0EE0FFF1FE95DFD4F808180938A
:1004E0001C02E0910001F0E0EE0FFF1FE85DFD4F00
:1004F000808180931D0280915302909154029093C9
:100500003C0280933B0210924402109243020E94EC
:10051000750104C080914D0290914E0280910C02B1
:1005200090910D02A0910E02B0910F0280931002E3
:1005300090931102A0931202B093130280911402BF
:100540009091150201969093150280931402FF91E9
:10055000EF91BF91AF919F918F917F916F915F913B
:100560004F913F912F910F900FBE0F901F901895B4
:10057000309B04C081E08093220202C010922202CC
:10058000319B04C081E08093230202C010922302B9
:10059000329B04C081E08093240202C010922402A6
:1005A000339B04C081E08093250202C01092250293
:1005B0003091220220912302809124029091250201
:1005C000220F880F880F822B832B990F990F990F79
:1005D000982B909300010895FF920F931F930E9410
:1005E000EA000E940D010E94B6000E943E010E9496
:1005F000D30078941FEFFF24F3940DE4B19BFECF5A
:1006000060910C0270910D0280910E0290910F0288
:100610002FE632E143E85AE30E94410560930C0261
:1006200070930D0280930E0290930F02809143020B
:1006300090914402892B29F560910C0270910D0272
:1006400080910E0290910F022091100230911102C0
:1006500040911202509113020E94100520E030E0F8
:1006600040E05FE30E946E0588230CF06CC080912F
:100670001C0217BC88BD80911D021092B3008093AC
:10068000B40080910A0290910B02019690930B02A4
:1006900080930A0280910A0290910B02883C910596
:1006A00009F04FC00E94B8028091C00085FFFCCFC6
:1006B0001093C6008091C00085FFFCCF1092C60049
:1006C0008091C00085FFFCCF1093C6008091C000D0
:1006D00085FFFCCF1092C6008091C00085FFFCCF43
:1006E000F092C60060910C0270910D0280910E0292
:1006F00090910F020E94920060911D0270E080E0D4
:1007000090E00E949E0560933D0270933E028093AC
:100710003F029093400260913D0270913E028091B1
:100720003F02909140020E9492008091C00085FF9C
:10073000FCCF0093C6000E94570110920B0210924A
:100740000A02B19A5BCF60910C0270910D02809108
:100750000E0290910F0220911002309111024091EF
:100760001202509113020E94100520E030E040E098
:100770005FE30E946E0587FD84CF17BC18BC109202
:10078000B3001092B4007DCFA0E0B0E0EAECF3E05B
:100790000C940C08DC012B01FA019C91923008F4B6
:1007A00039C1EB018881823008F433C1943069F497
:1007B000843009F02FC111969C9111978981981767
:1007C00009F428C1A1E0B1E025C1843009F421C1B8
:1007D0008230A9F4923009F01DC19A01AD0188E080
:1007E000EA010990AE01E90109929E018150C1F729
:1007F000E201898111969C918923818308C19230FD
:1008000009F407C112962D903C901397EB018A8151
:100810009B811496AD90BD90CD90DC901797EC80A5
:10082000FD800E811F819101281B390BB90137FF13
:1008300004C066277727621B730B603271050CF0CA
:1008400061C0121613066CF537014801062E04C06C
:1008500096948794779467940A94D2F721E030E0D5
:1008600040E050E004C0220F331F441F551F6A951B
:10087000D2F721503040404050402E213F214023AC
:100880005123211531054105510521F021E030E0CA
:1008900040E050E079018A01E628F7280829192963
:1008A0003CC0232BD1F1260E371E35014601062E02
:1008B00004C096948794779467940A94D2F721E0C1
:1008C00030E040E050E004C0220F331F441F551FAA
:1008D0006A95D2F721503040404050402A213B21B8
:1008E0004C215D21211531054105510521F021E003
:1008F00030E040E050E059016A01A628B728C82836
:10090000D9280BC0821593052CF01C01AA24BB2406
:10091000650103C0EE24FF24870111969C91D2014A
:1009200011968C91981709F445C0992339F0A801C4
:1009300097012A193B094C095D0906C0A6019501DA
:100940002E193F09400B510B57FD08C0118233820D
:10095000228224833583468357831DC081E08183AF
:100960003382228288279927DC01821B930BA40BF8
:10097000B50B84839583A683B7830DC0220F331FE5
:10098000441F551F24833583468357838281938177
:100990000197938382832481358146815781DA01CF
:1009A000C9010197A109B1098F5F9F4FAF4FBF43A5
:1009B00028F30BC0918333822282EA0CFB1C0C1DAE
:1009C0001D1DE482F5820683178383E080832481E2
:1009D00035814681578157FF1AC0C901AA2797FD63
:1009E000A095BA2F81709070A070B0705695479501
:1009F00037952795822B932BA42BB52B8483958336
:100A0000A683B78382819381019693838283DF01DA
:100A100001C0D201CD01CDB7DEB7E2E10C942808C8
:100A2000A0E2B0E0E6E1F5E00C94180869837A836F
:100A30008B839C832D833E834F835887E9E0EE2E82
:100A4000F12CEC0EFD1ECE010196B7010E943B0772
:100A50008E010F5E1F4FCE010596B8010E943B0725
:100A60008A8991E089278A8BC701B801AE01475E68
:100A70005F4F0E94C4030E946606A096E6E00C94B5
:100A80003408A0E2B0E0E7E4F5E00C9418086983CC
:100A90007A838B839C832D833E834F835887F9E031
:100AA000EF2EF12CEC0EFD1ECE010196B7010E9437
:100AB0003B078E010F5E1F4FCE010596B8010E94C5
:100AC0003B07C701B801AE01475E5F4F0E94C403F8
:100AD0000E946606A096E6E00C943408A8E1B0E017
:100AE000E4E7F5E00C94180869837A838B839C8390
:100AF0002D833E834F83588789E0E82EF12CEC0E3E
:100B0000FD1ECE010196B7010E943B078E010F5ECC
:100B10001F4FCE010596B8010E943B0789858230A0
:100B200040F08989823028F0C701B8010E94B307DC
:100B300001C081E06896E6E00C943408A8E0B0E0DB
:100B4000E4EAF5E00C9414087B018C016115710551
:100B50008105910519F482E0898360C083E089836F
:100B60008EE1C82ED12CDC82CB82ED82FE820F83F7
:100B70001887C801B7010E941706FC013197F7FFDB
:100B80003BC0222733272E1B3F0B57016801022E43
:100B900004C0D694C794B794A7940A94D2F740E0BF
:100BA00050E060E070E081E090E0A0E0B0E004C0E0
:100BB000880F991FAA1FBB1F2A95D2F70197A10979
:100BC000B1098E219F21A023B1230097A105B10572
:100BD00021F041E050E060E070E04A295B296C2997
:100BE0007D294D835E836F8378878EE190E08E1B35
:100BF0009F0B9C838B8312C0309781F00E2E04C014
:100C0000EE0CFF1C001F111F0A94D2F7ED82FE822A
:100C10000F831887CE1ADF0ADC82CB821A82CE01BC
:100C200001960E9466062896EAE00C943008EF923E
:100C3000FF920F931F937B018C0180E0E81680E008
:100C4000F80681E0080780E0180788F48FEFE816BF
:100C5000F1040105110531F028F088E090E0A0E0F2
:100C6000B0E017C080E090E0A0E0B0E012C080E00B
:100C7000E81680E0F80680E0080781E0180728F011
:100C800088E190E0A0E0B0E004C080E190E0A0E066
:100C9000B0E020E230E040E050E0281B390B4A0B86
:100CA0005B0B04C016950795F794E7948A95D2F7E5
:100CB000F701E75FFE4F8081281B31094109510987
:100CC000C9011F910F91FF90EF900895DF92EF926D
:100CD000FF920F931F93FC01E480F580068117813A
:100CE000D1808081823048F480E090E0A0E1B0E0E3
:100CF000E82AF92A0A2B1B2BA5C0843009F49FC0CF
:100D0000823021F4EE24FF24870105C0E114F104B0
:100D10000105110519F4E0E0F0E096C062817381ED
:100D20009FEF623879070CF05BC022E83FEF261B8B
:100D3000370B2A3131052CF020E030E040E050E064
:100D40002AC0B801A701022E04C076956795579571
:100D500047950A94D2F781E090E0A0E0B0E004C0AB
:100D6000880F991FAA1FBB1F2A95D2F70197A109C7
:100D7000B1098E219F21A023B1230097A105B105C0
:100D800021F081E090E0A0E0B0E09A01AB01282BD7
:100D9000392B4A2B5B2BDA01C9018F779070A07039
:100DA000B07080349105A105B10539F427FF09C061
:100DB000205C3F4F4F4F5F4F04C0215C3F4F4F4F70
:100DC0005F4FE0E0F0E02030A0E03A07A0E04A0703
:100DD000A0E45A0710F0E1E0F0E079018A0127C0B1
:100DE0006038710564F5FB01E158FF4FD801C70178
:100DF0008F779070A070B07080349105A105B10517
:100E000039F4E7FE0DC080E490E0A0E0B0E004C05B
:100E10008FE390E0A0E0B0E0E80EF91E0A1F1B1F70
:100E200017FF05C016950795F794E794319687E06C
:100E300016950795F794E7948A95D1F705C0EE24A7
:100E4000FF248701EFEFF0E06E2F67956627679527
:100E5000902F9F77D794DD24D7948E2F8695492F96
:100E6000462B582F5D29B701CA011F910F91FF90A2
:100E7000EF90DF900895FC01DB01408151812281D8
:100E8000622F6F7770E0221F2227221F9381892F04
:100E9000880F822B282F30E0991F9927991F1196D0
:100EA0009C93119721153105A9F54115510561054F
:100EB000710511F482E037C082E89FEF13969C938E
:100EC0008E9312979A01AB0167E0220F331F441FE4
:100ED000551F6A95D1F783E08C930DC0220F331F05
:100EE000441F551F12968D919C911397019713964D
:100EF0009C938E931297203080E0380780E048075B
:100F000080E4580758F314962D933D934D935C93CA
:100F1000179708952F3F310579F441155105610563
:100F2000710519F484E08C93089564FF03C081E097
:100F30008C9312C01C9210C02F57304013963C93D4
:100F40002E93129783E08C9387E0440F551F661F02
:100F5000771F8A95D1F7706414964D935D936D93C6
:100F60007C93179708951F93DC01FB019C919230AD
:100F700008F447C08081823008F443C0943051F4B3
:100F800011961C91843099F58181682F70E0611B66
:100F900071093FC0843021F0923031F48230B9F1D0
:100FA0008181882389F12DC011961C91119782307F
:100FB000F1F081811817D9F412962D913C91139775
:100FC000828193818217930794F028173907BCF028
:100FD00014968D919D910D90BC91A02D2481358109
:100FE00046815781281739074A075B0718F41123F0
:100FF00041F00AC082179307A407B50740F41123F4
:1010000019F061E070E005C06FEF7FEF02C060E0B3
:1010100070E0CB011F9108952F923F924F925F9203
:101020006F927F928F929F92AF92BF92CF92DF92F8
:10103000EF92FF920F931F93CF93DF93CDB7DEB75D
:10104000CA1BDB0B0FB6F894DEBF0FBECDBF0994F1
:101050002A88398848885F846E847D848C849B8448
:10106000AA84B984C884DF80EE80FD800C811B8156
:10107000AA81B981CE0FD11D0FB6F894DEBF0FBE85
:0A108000CDBFED010895F894FFCFF5
:10108A004D000000000000000000010202030303FB
:10109A000304040404040404040505050505050500
:1010AA0005050505050505050506060606060606DF
:1010BA0006060606060606060606060606060606C6
:1010CA0006060606060606060607070707070707AF
:1010DA000707070707070707070707070707070796
:1010EA000707070707070707070707070707070786
:1010FA000707070707070707070707070707070776
:10110A00070707070707070707080808080808085E
:10111A000808080808080808080808080808080845
:10112A000808080808080808080808080808080835
:10113A000808080808080808080808080808080825
:10114A000808080808080808080808080808080815
:10115A000808080808080808080808080808080805
:10116A0008080808080808080808080808080808F5
:10117A0008080808080808080808080808080808E5
:0A118A000808080808080808080013
:00000001FF
