:100000000C9434000C9451000C9451000C94510049
:100010000C9451000C9451000C9451000C9451001C
:100020000C9451000C9451000C9451000C942C032E
:100030000C94F3020C9451000C9451000C94510058
:100040000C9451000C9451000C94A5030C94510095
:100050000C9451000C9451000C9451000C945100DC
:100060000C9451000C94510011241FBECFEFD8E026
:10007000DEBFCDBF12E0A0E0B1E0EEEBF5E102C0E3
:1000800005900D92AA30B107D9F712E0AAE0B2E0CC
:1000900001C01D92AB37B107E1F70E94F6010C9445
:1000A000DD0A0C94000010923E0210923D02089569
:1000B00081E090E090933E0280933D02089560912C
:1000C0004F027091500280E090E00E9438089B013E
:1000D000AC0160E070E583EC97E40E9408070E94A1
:1000E0003205709356026093550280910001209171
:1000F0004F023091500290E0829FB001839F700DBB
:10010000929F700D112480E090E00E9438089B01BE
:10011000AC0160E876E988E99BE40E9408070E9448
:1001200032057093540260935302EFE6F0E0808151
:100130008D7F808380818B7F8083B19AB29A8091FA
:100140005502909156029093890080938800809187
:1001500053029091540290938B0080938A001092E6
:100160008500109284008081826080838081846019
:100170008083809100018093010108958F3F910554
:1001800011F49B0104C022273327261B370BC9011A
:1001900008958091160290911702A0911802B091D3
:1001A000190220911A0230911B0240911C025091B9
:1001B0001D0260E070E0821B930BA40BB50B885806
:1001C0009341A040B04010F061E070E0CB01089591
:1001D00081E090E00895982F8091C00085FFFCCFCA
:1001E0009093C60008959C018091C00085FFFCCFCC
:1001F0002093C6008091C00085FFFCCF832F9927F4
:1002000087FD9A958093C6000895282F8091C0009D
:1002100085FFFCCF6093C6008091C00085FFFCCFB6
:100220007093C6008091C00085FFFCCF2093C6006C
:100230008091C00085FFFCCF9093C600089528E808
:1002400033E104C0F9013197F1F701970097D1F735
:100250000895EFE6F0E08081826080838081846091
:100260008083E0E8F0E080818F7E808380818F7DD5
:10027000808380818E7F808380818D7F8083E1E891
:10028000F0E08081877F808380818F7E808380E023
:1002900094E09093500280934F028081816080832C
:1002A00080818D7F8083808184608083089582E057
:1002B0008093C00088E98093C10086E08093C200EB
:1002C0001092C50084E08093C4005098589A519AC7
:1002D00008956230710508F4CB01089584B58260F9
:1002E00084BD84B5816084BD84B5806884BD84B5D7
:1002F000806484BD84B5806284BD84B5806184BD22
:1003000085B5877F85BD85B58E7F85BD85B58260C6
:1003100085BD85B58B7F85BD17BC18BC559A569A8F
:100320000895E0EBF0E080818260808380818160CD
:1003300080838081806880838081806480838081E5
:1003400080628083808180618083E1EBF0E0808146
:10035000877F808380818E7F80838081826080839D
:1003600080818B7F80831092B3001092B400539AE7
:10037000239A08959C0197FD03C017BC88BD08957A
:1003800088279927821B930B87BD18BC08959C0171
:1003900097FD05C01092B3008093B400089588279C
:1003A0009927821B930B8093B3001092B400089599
:1003B000209A219A229A81E090E090933C028093C7
:1003C0003B02549A579A08958130910511F4289A66
:1003D0000895892B09F4289808958130910511F426
:1003E000299A0895892B09F429980895FF920F936B
:1003F0001F930E946E010E9491010E9429010E9498
:10040000D8010E94570178941FEFFF24F3940DE464
:1004100080915F0290916002892B09F09EC09091BB
:10042000000180910101981711F00E945F008091F6
:10043000160290911702A0911802B0911902209112
:100440001A0230911B0240911C0250911D02821B26
:10045000930BA40BB50B88589341A040B04008F013
:1004600090C080913F0290E00E94E401809146029A
:1004700090E00E94ED0180914402909145020E941B
:10048000BA0180914B0290914C020E94C701809169
:100490000A0290910B02019690930B0280930A023C
:1004A00080910A0290910B028051974209F055C049
:1004B00080910C0290910D02019690930D02809311
:1004C0000C028091C00085FFFCCF1093C600809184
:1004D000C00085FFFCCF1092C6008091C00085FF50
:1004E000FCCF1093C6008091C00085FFFCCF109216
:1004F000C6008091C00085FFFCCFF092C6006091DD
:100500000E0270910F0280911002909111020E94D0
:10051000050160910C0270910D0280E090E00E9454
:1005200038086093590270935A0280935B0290934B
:100530005C026091590270915A0280915B02909125
:100540005C020E9405018091C00085FFFCCF0093F2
:10055000C60010920B0210920A028091160290912E
:100560001702A0911802B09119020196A11DB11DA8
:100570008093160290931702A0931802B093190269
:1005800047CF8091160290911702A0911802B09166
:10059000190220911A0230911B0240911C025091C5
:1005A0001D02821B930BA40BB50B88589341A040EE
:1005B000B04008F46CCF80E090E00E94E40180E05D
:1005C00090E00E94ED0180E090E00E94BA0180E09E
:1005D00090E05BCF8130910511F42A9A0895892B20
:1005E00009F42A9808951F920F920FB60F921124C2
:1005F0002F933F934F935F936F937F938F939F932B
:10060000AF93BF93EF93FF9380913D0290913E0291
:10061000892B61F480910001882341F081E090E012
:1006200090933902809338020E94EA02109285006A
:1006300010928400B29AFF91EF91BF91AF919F9178
:100640008F917F916F915F914F913F912F910F907B
:100650000FBE0F901F9018951F920F920FB60F921A
:1006600011242F933F934F935F936F937F938F93B7
:100670009F93AF93BF93EF93FF9310923902109221
:10068000380280E090E00E94EA02B19AFF91EF9177
:10069000BF91AF919F918F917F916F915F914F919A
:1006A0003F912F910F900FBE0F901F9018958130A2
:1006B000910511F45C9A0895892B09F45C980895CA
:1006C0008130910511F45F9A0895892B09F45F98A0
:1006D00008958091340290913502892B49F481E08C
:1006E00090E090933502809334020E94570308955E
:1006F0008091340290913502019741F410923502B5
:100700001092340280E090E00E9457030895809197
:10071000360290913702892B49F481E090E0909362
:100720003702809336020E9460030895809136025A
:1007300090913702019741F41092370210923602DD
:1007400080E090E00E94600308951F920F920FB620
:100750000F9211242F933F934F935F936F937F9347
:100760008F939F93AF93BF93EF93FF930E9469037F
:100770008091320290913302892B09F068C08091F8
:10078000630290916402909362028093610280916F
:100790006502909166029093640280936302809157
:1007A000670290916802909366028093650280913F
:1007B000690290916A029093680280936702809127
:1007C000C60090E090936A02809369028091610272
:1007D000909162028F3F910509F015C180916302EB
:1007E00090916402892B09F00EC18091650290916D
:1007F00066028F3F910509F006C1809167029091D2
:100800006802892B09F0FFC081E090E090933302E9
:100810008093320285E090E090932F0280932E0225
:100820008091690290916A02019719F48CE090E03E
:1008300009C08091690290916A02029709F0E3C0B1
:1008400087EE93E09093310280933002DCC0809178
:10085000320290913302019709F0D5C020912E0207
:1008600030912F02809130029091310282179307CC
:10087000B0F0E0912E02F0912F028091C60090E03E
:10088000EE0FFF1FEF59FD4F9183808380912E0261
:1008900090912F02019690932F0280932E02209127
:1008A0002E0230912F0280913002909131028217F6
:1008B000930708F0A8C01092330210923202809180
:1008C000690290916A028130910509F06FC090939E
:1008D000600280935F0280916B0290916C02809322
:1008E000000180916D0290916E0280933F02809191
:1008F0006F02909170029093410280934002809128
:10090000710290917202909343028093420280910F
:1009100042029091430220914002309141028F3F68
:10092000910511F4C90104C088279927821B930BF4
:1009300090934502809344028091730290917402D7
:1009400080934602809175029091760290934802BE
:1009500080934702809177029091780290934A02A7
:10096000809349028091490290914A022091470266
:10097000309148028F3F910511F4C90104C08827C6
:100980009927821B930B90934C0280934B0280918A
:10099000790290917A0290935802809357021092B4
:1009A000600210925F020E94870304C08091690276
:1009B00090916A0280910E0290910F02A091100214
:1009C000B091110280931E0290931F02A093200207
:1009D000B09321028091160290911702A091180203
:1009E000B091190280931A0290931B02A0931C02EB
:1009F000B0931D0280912A0290912B020196909350
:100A00002B0280932A02FF91EF91BF91AF919F91AA
:100A10008F917F916F915F914F913F912F910F90A7
:100A20000FBE0F901F901895809138029091390257
:100A3000892B49F481E090E0909339028093380249
:100A40000E94EA020895809138029091390201973C
:100A500041F4109239021092380280E090E00E9436
:100A6000EA020895EF92FF920F931F937B018C018E
:100A700020E030E040E05FE40E94B40788238CF07F
:100A8000C801B70120E030E040E05FE40E94AA0620
:100A90000E94E4079B01AC01205030404040504888
:100AA00006C0C801B7010E94E4079B01AC01B9016F
:100AB000CA011F910F91FF90EF900895A0E0B0E060
:100AC000E4E6F5E00C94A60ADC012B01FA019C9106
:100AD000923008F439C1EB018881823008F433C1C7
:100AE000943069F4843009F02FC111969C911197CC
:100AF0008981981709F428C1A2E0B1E025C18430AA
:100B000009F421C18230A9F4923009F01DC19A0183
:100B1000AD0188E0EA010990AE01E90109929E0168
:100B20008150C1F7E201898111969C9189238183CB
:100B300008C1923009F407C112962D903C9013978A
:100B4000EB018A819B811496AD90BD90CD90DC9095
:100B50001797EC80FD800E811F819101281B390BB6
:100B6000B90137FF04C066277727621B730B603219
:100B700071050CF061C0121613066CF537014801BF
:100B8000062E04C096948794779467940A94D2F7BB
:100B900021E030E040E050E004C0220F331F441F4A
:100BA000551F6A95D2F721503040404050402E21C9
:100BB0003F2140235123211531054105510521F0E5
:100BC00021E030E040E050E079018A01E628F72892
:100BD000082919293CC0232BD1F1260E371E3501D7
:100BE0004601062E04C096948794779467940A94DD
:100BF000D2F721E030E040E050E004C0220F331F84
:100C0000441F551F6A95D2F7215030404040504054
:100C10002A213B214C215D2121153105410551053A
:100C200021F021E030E040E050E059016A01A628BF
:100C3000B728C828D9280BC0821593052CF01C01B1
:100C4000AA24BB24650103C0EE24FF24870111966A
:100C50009C91D20111968C91981709F445C0992363
:100C600039F0A80197012A193B094C095D0906C012
:100C7000A60195012E193F09400B510B57FD08C0E5
:100C800011823382228224833583468357831DC099
:100C900081E081833382228288279927DC01821BAD
:100CA000930BA40BB50B84839583A683B7830DC0E8
:100CB000220F331F441F551F2483358346835783D8
:100CC0008281938101979383828324813581468138
:100CD0005781DA01C9010197A109B1098F5F9F4FBF
:100CE000AF4FBF4328F30BC0918333822282EA0CBB
:100CF000FB1C0C1D1D1DE482F5820683178383E017
:100D00008083248135814681578157FF1AC0C901EC
:100D1000AA2797FDA095BA2F81709070A070B0702F
:100D20005695479537952795822B932BA42BB52B5A
:100D300084839583A683B78382819381019693836D
:100D40008283DF0101C0D201CD01CDB7DEB7E2E180
:100D50000C94C20AA0E2B0E0E0EBF6E00C94B20A18
:100D600069837A838B839C832D833E834F8358874B
:100D7000E9E0EE2EF12CEC0EFD1ECE010196B7013E
:100D80000E94D5098E010F5E1F4FCE010596B80156
:100D90000E94D5098A8991E089278A8BC701B80109
:100DA000AE01475E5F4F0E945E050E940009A0965B
:100DB000E6E00C94CE0AA0E2B0E0E1EEF6E00C949E
:100DC000B20A69837A838B839C832D833E834F830E
:100DD0005887F9E0EF2EF12CEC0EFD1ECE010196A6
:100DE000B7010E94D5098E010F5E1F4FCE010596F7
:100DF000B8010E94D509C701B801AE01475E5F4F37
:100E00000E945E050E940009A096E6E00C94CE0ABE
:100E1000A8E1B0E0EEE0F7E00C94AE0A69837A83D3
:100E20008B839C832D833E834F835887B9E0EB2EC1
:100E3000F12CEC0EFD1ECE010196B7010E94D509E2
:100E40008E010F5E1F4FCE010596B8010E94D50995
:100E50002985223008F47EC03989323010F4B80177
:100E60007CC08A859A8989278A87243011F02230AC
:100E700031F4231709F06EC062E071E06EC03430C7
:100E800039F41D861E861F86188A1C861B8604C0A0
:100E9000323021F484E08987B7015FC02B853C851F
:100EA0008B899C89281B390B3C872B87ED84FE841A
:100EB0000F851889AD88BE88CF88D88CEA14FB04CA
:100EC0000C051D0540F4EE0CFF1C001F111F2150E6
:100ED00030403C872B8720E030E040E050E080E06D
:100EE00090E0A0E0B0E460E070E0EA14FB040C05E0
:100EF0001D0540F0282B392B4A2B5B2BEA18FB08E9
:100F00000C091D09B695A79597958795EE0CFF1CC2
:100F1000001F111F6F5F7F4F6F31710531F7DA01CD
:100F2000C9018F779070A070B07080349105A105D1
:100F3000B10561F427FD0AC0E114F10401051105B2
:100F400029F0205C3F4F4F4F5F4F20782D873E8721
:100F50004F87588BBE01675F7F4FCB010E9400090E
:100F60006896EAE00C94CA0AA8E1B0E0EAEBF7E080
:100F70000C94B20A69837A838B839C832D833E838E
:100F80004F83588789E0E82EF12CEC0EFD1ECE0130
:100F90000196B7010E94D5098E010F5E1F4FCE0149
:100FA0000596B8010E94D5098985823040F089896B
:100FB000823028F0C701B8010E944D0A01C08FEFAE
:100FC0006896E6E00C94CE0AACE0B0E0EAEEF7E01A
:100FD0000C94B60A69837A838B839C83CE01019635
:100FE000BE016B5F7F4F0E94D5098D81823061F118
:100FF000823050F1843021F48E81882351F12EC04B
:101000002F81388537FD20C06E812F3131051CF0CE
:101010006623F9F023C08EE190E0821B930B2985B3
:101020003A854B855C8504C056954795379527953D
:101030008A95D2F76623B1F0509540953095219569
:101040003F4F4F4F5F4F0EC020E030E040E050E098
:1010500009C02FEF3FEF4FEF5FE704C020E030E023
:1010600040E050E8B901CA012C96E2E00C94D20AA3
:10107000A8E0B0E0EEE3F8E00C94AE0A7B018C014E
:10108000611571058105910519F482E0898360C0BD
:1010900083E089838EE1C82ED12CDC82CB82ED8265
:1010A000FE820F831887C801B7010E94B108FC01B6
:1010B0003197F7FF3BC0222733272E1B3F0B5701E9
:1010C0006801022E04C0D694C794B794A7940A94DA
:1010D000D2F740E050E060E070E081E090E0A0E016
:1010E000B0E004C0880F991FAA1FBB1F2A95D2F732
:1010F0000197A109B1098E219F21A023B123009757
:10110000A105B10521F041E050E060E070E04A291E
:101110005B296C297D294D835E836F8378878EE1FF
:1011200090E08E1B9F0B9C838B8312C0309781F0C5
:101130000E2E04C0EE0CFF1C001F111F0A94D2F7E4
:10114000ED82FE820F831887CE1ADF0ADC82CB8203
:101150001A82CE0101960E9400092896EAE00C94BA
:10116000CA0AEF92FF920F931F937B018C0180E0DC
:10117000E81680E0F80681E0080780E0180788F4A8
:101180008FEFE816F1040105110531F028F088E031
:1011900090E0A0E0B0E017C080E090E0A0E0B0E018
:1011A00012C080E0E81680E0F80680E0080781E0E1
:1011B000180728F088E190E0A0E0B0E004C080E1EA
:1011C00090E0A0E0B0E020E230E040E050E0281BFA
:1011D000390B4A0B5B0B04C016950795F794E794FF
:1011E0008A95D2F7F701E65FFE4F8081281B31090F
:1011F00041095109C9011F910F91FF90EF90089586
:10120000DF92EF92FF920F931F93FC01E480F58031
:1012100006811781D1808081823048F480E090E09F
:10122000A0E1B0E0E82AF92A0A2B1B2BA5C08430E4
:1012300009F49FC0823021F4EE24FF24870105C009
:10124000E114F1040105110519F4E0E0F0E096C0A5
:10125000628173819FEF623879070CF05BC022E8EE
:101260003FEF261B370B2A3131052CF020E030E010
:1012700040E050E02AC0B801A701022E04C07695D4
:101280006795579547950A94D2F781E090E0A0E0E2
:10129000B0E004C0880F991FAA1FBB1F2A95D2F780
:1012A0000197A109B1098E219F21A023B1230097A5
:1012B000A105B10521F081E090E0A0E0B0E09A0145
:1012C000AB01282B392B4A2B5B2BDA01C9018F7715
:1012D0009070A070B07080349105A105B10539F40B
:1012E00027FF09C0205C3F4F4F4F5F4F04C0215C78
:1012F0003F4F4F4F5F4FE0E0F0E02030A0E03A0773
:10130000A0E04A07A0E45A0710F0E1E0F0E079011C
:101310008A0127C06038710564F5FB01E158FF4F71
:10132000D801C7018F779070A070B070803491059C
:10133000A105B10539F4E7FE0DC080E490E0A0E01E
:10134000B0E004C08FE390E0A0E0B0E0E80EF91E4A
:101350000A1F1B1F17FF05C016950795F794E79402
:10136000319687E016950795F794E7948A95D1F71B
:1013700005C0EE24FF248701EFEFF0E06E2F6795A4
:1013800066276795902F9F77D794DD24D7948E2F6B
:101390008695492F462B582F5D29B701CA011F9109
:1013A0000F91FF90EF90DF900895FC01DB014081E9
:1013B00051812281622F6F7770E0221F2227221F26
:1013C0009381892F880F822B282F30E0991F99272E
:1013D000991F11969C93119721153105A9F5411577
:1013E00051056105710511F482E037C082E89FEF75
:1013F00013969C938E9312979A01AB0167E0220F8C
:10140000331F441F551F6A95D1F783E08C930DC09D
:10141000220F331F441F551F12968D919C911397D5
:10142000019713969C938E931297203080E0380793
:1014300080E0480780E4580758F314962D933D93B5
:101440004D935C93179708952F3F310579F441151B
:1014500051056105710519F484E08C93089564FFCA
:1014600003C081E08C9312C01C9210C02F573040F3
:1014700013963C932E93129783E08C9387E0440F4E
:10148000551F661F771F8A95D1F7706414964D9388
:101490005D936D937C93179708951F93DC01FB0177
:1014A0009C91923008F447C08081823008F443C098
:1014B000943051F411961C91843099F58181682FF4
:1014C00070E0611B71093FC0843021F0923031F42B
:1014D0008230B9F18181882389F12DC011961C9148
:1014E00011978230F1F081811817D9F412962D915D
:1014F0003C911397828193818217930794F0281768
:101500003907BCF014968D919D910D90BC91A02D42
:101510002481358146815781281739074A075B079F
:1015200018F4112341F00AC082179307A407B507E6
:1015300040F4112319F061E070E005C06FEF7FEF18
:1015400002C060E070E0CB011F9108952F923F929E
:101550004F925F926F927F928F929F92AF92BF92C3
:10156000CF92DF92EF92FF920F931F93CF93DF936F
:10157000CDB7DEB7CA1BDB0B0FB6F894DEBF0FBECC
:10158000CDBF09942A88398848885F846E847D8419
:101590008C849B84AA84B984C884DF80EE80FD801B
:1015A0000C811B81AA81B981CE0FD11D0FB6F89491
:0E15B000DEBF0FBECDBFED010895F894FFCF52
:1015BE0002E7000000000000000000010202030329
:1015CE0003030404040404040404050505050505C9
:1015DE0005050505050505050505060606060606A7
:1015EE00060606060606060606060606060606068D
:1015FE000606060606060606060607070707070777
:10160E00070707070707070707070707070707075C
:10161E00070707070707070707070707070707074C
:10162E00070707070707070707070707070707073C
:10163E000707070707070707070708080808080826
:10164E00080808080808080808080808080808080C
:10165E0008080808080808080808080808080808FC
:10166E0008080808080808080808080808080808EC
:10167E0008080808080808080808080808080808DC
:10168E0008080808080808080808080808080808CC
:10169E0008080808080808080808080808080808BC
:1016AE0008080808080808080808080808080808AC
:0A16BE0008080808080808080808D2
:00000001FF
