:100000000C9434000C9453000C9451000C94510047
:100010000C9451000C9451000C9451000C9451001C
:100020000C9451000C9451000C9451000C9451000C
:100030000C9451000C9451000C9451000C945100FC
:100040000C9451000C9451000C9451000C945100EC
:100050000C9451000C9451000C9451000C945100DC
:100060000C9451000C94510011241FBECFEFD8E026
:10007000DEBFCDBF11E0A8E0B1E001C01D92A23209
:10008000B107E1F711E0A0E0B1E0EEE4FCE002C06E
:1000900005900D92A830B107D9F70E94BD010C94CC
:1000A00025060C9400001F920F920FB60F92112498
:1000B0008F939F93AF93BF9380911A0190911B01EF
:1000C000A0911C01B0911D0180931E0190931F010E
:1000D000A0932001B0932101E09ABF91AF919F912D
:1000E0008F910F900FBE0F901F90189528E833E165
:1000F00004C0F9013197F1F701970097D1F70895FE
:100100003898409A3998419A3A98429A3B98439A3B
:100110003C98449A3D985798549A519A509A259AE7
:10012000249A229A219A209A0895309B06C0109210
:100130000901109208015C98089581E090E0909385
:100140000901809308015C9A0895319B06C01092C2
:100150000B0110920A015998089581E090E0909364
:100160000B0180930A01599A0895329B06C01092A0
:100170000D0110920C015898089581E090E0909341
:100180000D0180930C01589A0895339B06C010927C
:100190000F0110920E012D98089581E090E0909348
:1001A0000F0180930E012D9A0895349B06C0109282
:1001B0001101109210012C98089581E090E0909325
:1001C0001101809310012C9A0895359B07C081E09E
:1001D00090E09093130180931201089510921301FF
:1001E0001092120108954F9B07C081E090E0909318
:1001F00015018093140108951092150110921401B5
:100200000895E0E8F0E080818E7F808380818D7F9B
:100210008083E1E8F0E08081886080838081816074
:10022000808380818D7F808380818460808380E172
:1002300090E0909389008093880008950895009736
:1002400011F42A980895019709F42A9A08950097BD
:1002500011F429980895019709F4299A0895813095
:10026000910511F4289A0895892B09F42898089586
:100270008130910511F4599A0895892B09F4599800
:1002800008955298E9E6F0E0808181608083E89AE1
:10029000089584B5826084BD84B5816084BD84B5D1
:1002A000806884BD84B5806484BD84B5806284BD6B
:1002B00084B5806184BD85B5877F85BD85B58E7F1A
:1002C00085BD85B5826085BD85B58B7F85BD17BC35
:1002D00018BC559A569A0895E0EBF0E08081826050
:1002E0008083808181608083808180688083808139
:1002F000806480838081806280838081806180834C
:10030000E1EBF0E08081877F808380818E7F808336
:1003100080818260808380818B7F80831092B30094
:100320001092B400539A239A0895009719F417BCB9
:1003300018BC0895019719F417BC8FEF88BD089574
:10034000009729F41092B3001092B4000895019719
:1003500029F41092B3008FEF8093B40008950097B2
:1003600029F480E090E00E9495010895019721F41E
:1003700081E090E00E94950108950E9401010E9491
:1003800080000E9449010E946C010E944101789402
:10039000B19BFECF60911A0170911B0180911C01ED
:1003A00090911D012FE632E143E85AE30E94EB03EE
:1003B00060931A0170931B0180931C0190931D019F
:1003C00060911A0170911B0180911C0190911D0197
:1003D00020911E0130911F01409120015091210177
:1003E0000E94BA0326EA3BE944E45BE30E94180456
:1003F00088233CF081E090E09093170180931601F0
:1004000006C0109217011092160180E090E00E9441
:10041000AF010E9495000E94A5000E94B5000E94B5
:10042000C5000E94D500359B07C081E090E0909305
:1004300013018093120104C0109213011092120153
:100440004F9B07C081E090E09093150180931401C9
:1004500004C010921501109214018091080190912E
:100460000901019731F080910C0190910D010197E4
:1004700019F481E090E002C080E090E00E941F014A
:1004800080910A0190910B01019731F080910E014A
:1004900090910F01019719F481E090E002C080E093
:1004A00090E00E9427018091160190911701019719
:1004B00061F08091120190911301892B31F08091AC
:1004C000140190911501892B19F480E090E002C08D
:1004D00081E090E00E942F01B19A5ACFA0E0B0E0F5
:1004E000E4E7F2E00C94EE05DC012B01FA019C91AB
:1004F000923008F439C1EB018881823008F433C1AD
:10050000943069F4843009F02FC111969C911197B1
:100510008981981709F428C1A0E0B1E025C1843091
:1005200009F421C18230A9F4923009F01DC19A0169
:10053000AD0188E0EA010990AE01E90109929E014E
:100540008150C1F7E201898111969C9189238183B1
:1005500008C1923009F407C112962D903C90139770
:10056000EB018A819B811496AD90BD90CD90DC907B
:100570001797EC80FD800E811F819101281B390B9C
:10058000B90137FF04C066277727621B730B6032FF
:1005900071050CF061C0121613066CF537014801A5
:1005A000062E04C096948794779467940A94D2F7A1
:1005B00021E030E040E050E004C0220F331F441F30
:1005C000551F6A95D2F721503040404050402E21AF
:1005D0003F2140235123211531054105510521F0CB
:1005E00021E030E040E050E079018A01E628F72878
:1005F000082919293CC0232BD1F1260E371E3501BD
:100600004601062E04C096948794779467940A94C2
:10061000D2F721E030E040E050E004C0220F331F69
:10062000441F551F6A95D2F721503040404050403A
:100630002A213B214C215D21211531054105510520
:1006400021F021E030E040E050E059016A01A628A5
:10065000B728C828D9280BC0821593052CF01C0197
:10066000AA24BB24650103C0EE24FF248701119650
:100670009C91D20111968C91981709F445C0992349
:1006800039F0A80197012A193B094C095D0906C0F8
:10069000A60195012E193F09400B510B57FD08C0CB
:1006A00011823382228224833583468357831DC07F
:1006B00081E081833382228288279927DC01821B93
:1006C000930BA40BB50B84839583A683B7830DC0CE
:1006D000220F331F441F551F2483358346835783BE
:1006E000828193810197938382832481358146811E
:1006F0005781DA01C9010197A109B1098F5F9F4FA5
:10070000AF4FBF4328F30BC0918333822282EA0CA0
:10071000FB1C0C1D1D1DE482F5820683178383E0FC
:100720008083248135814681578157FF1AC0C901D2
:10073000AA2797FDA095BA2F81709070A070B07015
:100740005695479537952795822B932BA42BB52B40
:1007500084839583A683B783828193810196938353
:100760008283DF0101C0D201CD01CDB7DEB7E2E166
:100770000C940A06A0E2B0E0E0ECF3E00C94FA0579
:1007800069837A838B839C832D833E834F83588731
:10079000E9E0EE2EF12CEC0EFD1ECE010196B70124
:1007A0000E941D058E010F5E1F4FCE010596B801F8
:1007B0000E941D058A8991E089278A8BC701B801AB
:1007C000AE01475E5F4F0E946E020E944804A096F1
:1007D000E6E00C941606A0E2B0E0E1EFF3E00C9442
:1007E000FA0569837A838B839C832D833E834F83B1
:1007F0005887F9E0EF2EF12CEC0EFD1ECE0101968C
:10080000B7010E941D058E010F5E1F4FCE01059698
:10081000B8010E941D05C701B801AE01475E5F4FD8
:100820000E946E020E944804A096E6E00C94160610
:10083000A8E1B0E0EEE1F4E00C94FA0569837A8374
:100840008B839C832D833E834F83588789E0E82EDA
:10085000F12CEC0EFD1ECE010196B7010E941D0584
:100860008E010F5E1F4FCE010596B8010E941D0537
:100870008985823040F08989823028F0C701B8012B
:100880000E94950501C08FEF6896E6E00C9416066D
:10089000DF92EF92FF920F931F93FC01E480F580AB
:1008A00006811781D1808081823048F480E090E019
:1008B000A0E1B0E0E82AF92A0A2B1B2BA5C084305E
:1008C00009F49FC0823021F4EE24FF24870105C083
:1008D000E114F1040105110519F4E0E0F0E096C01F
:1008E000628173819FEF623879070CF05BC022E868
:1008F0003FEF261B370B2A3131052CF020E030E08A
:1009000040E050E02AC0B801A701022E04C076954D
:100910006795579547950A94D2F781E090E0A0E05B
:10092000B0E004C0880F991FAA1FBB1F2A95D2F7F9
:100930000197A109B1098E219F21A023B12300971E
:10094000A105B10521F081E090E0A0E0B0E09A01BE
:10095000AB01282B392B4A2B5B2BDA01C9018F778E
:100960009070A070B07080349105A105B10539F484
:1009700027FF09C0205C3F4F4F4F5F4F04C0215CF1
:100980003F4F4F4F5F4FE0E0F0E02030A0E03A07EC
:10099000A0E04A07A0E45A0710F0E1E0F0E0790196
:1009A0008A0127C06038710564F5FB01E158FF4FEB
:1009B000D801C7018F779070A070B0708034910516
:1009C000A105B10539F4E7FE0DC080E490E0A0E098
:1009D000B0E004C08FE390E0A0E0B0E0E80EF91EC4
:1009E0000A1F1B1F17FF05C016950795F794E7947C
:1009F000319687E016950795F794E7948A95D1F795
:100A000005C0EE24FF248701EFEFF0E06E2F67951D
:100A100066276795902F9F77D794DD24D7948E2FE4
:100A20008695492F462B582F5D29B701CA011F9182
:100A30000F91FF90EF90DF900895FC01DB01408162
:100A400051812281622F6F7770E0221F2227221F9F
:100A50009381892F880F822B282F30E0991F9927A7
:100A6000991F11969C93119721153105A9F54115F0
:100A700051056105710511F482E037C082E89FEFEE
:100A800013969C938E9312979A01AB0167E0220F05
:100A9000331F441F551F6A95D1F783E08C930DC017
:100AA000220F331F441F551F12968D919C9113974F
:100AB000019713969C938E931297203080E038070D
:100AC00080E0480780E4580758F314962D933D932F
:100AD0004D935C93179708952F3F310579F4411595
:100AE00051056105710519F484E08C93089564FF44
:100AF00003C081E08C9312C01C9210C02F5730406D
:100B000013963C932E93129783E08C9387E0440FC7
:100B1000551F661F771F8A95D1F7706414964D9301
:100B20005D936D937C93179708951F93DC01FB01F0
:100B30009C91923008F447C08081823008F443C011
:100B4000943051F411961C91843099F58181682F6D
:100B500070E0611B71093FC0843021F0923031F4A4
:100B60008230B9F18181882389F12DC011961C91C1
:100B700011978230F1F081811817D9F412962D91D6
:100B80003C911397828193818217930794F02817E1
:100B90003907BCF014968D919D910D90BC91A02DBC
:100BA0002481358146815781281739074A075B0719
:100BB00018F4112341F00AC082179307A407B50760
:100BC00040F4112319F061E070E005C06FEF7FEF92
:100BD00002C060E070E0CB011F9108952F923F9218
:100BE0004F925F926F927F928F929F92AF92BF923D
:100BF000CF92DF92EF92FF920F931F93CF93DF93E9
:100C0000CDB7DEB7CA1BDB0B0FB6F894DEBF0FBE45
:100C1000CDBF09942A88398848885F846E847D8492
:100C20008C849B84AA84B984C884DF80EE80FD8094
:100C30000C811B81AA81B981CE0FD11D0FB6F8940A
:0E0C4000DEBF0FBECDBFED010895F894FFCFCB
:080C4E0000000000000000009E
:00000001FF
